{"abi":[{"type":"constructor","inputs":[{"name":"_deployer","type":"address","internalType":"address"},{"name":"_factory","type":"address","internalType":"address"},{"name":"_WETH9","type":"address","internalType":"address"}],"stateMutability":"nonpayable"},{"type":"function","name":"WETH9","inputs":[],"outputs":[{"name":"","type":"address","internalType":"address"}],"stateMutability":"view"},{"type":"function","name":"deployer","inputs":[],"outputs":[{"name":"","type":"address","internalType":"address"}],"stateMutability":"view"},{"type":"function","name":"factory","inputs":[],"outputs":[{"name":"","type":"address","internalType":"address"}],"stateMutability":"view"},{"type":"function","name":"pancakeV3SwapCallback","inputs":[{"name":"amount0Delta","type":"int256","internalType":"int256"},{"name":"amount1Delta","type":"int256","internalType":"int256"},{"name":"path","type":"bytes","internalType":"bytes"}],"outputs":[],"stateMutability":"view"},{"type":"function","name":"quoteExactInput","inputs":[{"name":"path","type":"bytes","internalType":"bytes"},{"name":"amountIn","type":"uint256","internalType":"uint256"}],"outputs":[{"name":"amountOut","type":"uint256","internalType":"uint256"},{"name":"sqrtPriceX96AfterList","type":"uint160[]","internalType":"uint160[]"},{"name":"initializedTicksCrossedList","type":"uint32[]","internalType":"uint32[]"},{"name":"gasEstimate","type":"uint256","internalType":"uint256"}],"stateMutability":"nonpayable"},{"type":"function","name":"quoteExactInputSingle","inputs":[{"name":"params","type":"tuple","internalType":"struct IQuoterV2.QuoteExactInputSingleParams","components":[{"name":"tokenIn","type":"address","internalType":"address"},{"name":"tokenOut","type":"address","internalType":"address"},{"name":"amountIn","type":"uint256","internalType":"uint256"},{"name":"fee","type":"uint24","internalType":"uint24"},{"name":"sqrtPriceLimitX96","type":"uint160","internalType":"uint160"}]}],"outputs":[{"name":"amountOut","type":"uint256","internalType":"uint256"},{"name":"sqrtPriceX96After","type":"uint160","internalType":"uint160"},{"name":"initializedTicksCrossed","type":"uint32","internalType":"uint32"},{"name":"gasEstimate","type":"uint256","internalType":"uint256"}],"stateMutability":"nonpayable"},{"type":"function","name":"quoteExactOutput","inputs":[{"name":"path","type":"bytes","internalType":"bytes"},{"name":"amountOut","type":"uint256","internalType":"uint256"}],"outputs":[{"name":"amountIn","type":"uint256","internalType":"uint256"},{"name":"sqrtPriceX96AfterList","type":"uint160[]","internalType":"uint160[]"},{"name":"initializedTicksCrossedList","type":"uint32[]","internalType":"uint32[]"},{"name":"gasEstimate","type":"uint256","internalType":"uint256"}],"stateMutability":"nonpayable"},{"type":"function","name":"quoteExactOutputSingle","inputs":[{"name":"params","type":"tuple","internalType":"struct IQuoterV2.QuoteExactOutputSingleParams","components":[{"name":"tokenIn","type":"address","internalType":"address"},{"name":"tokenOut","type":"address","internalType":"address"},{"name":"amount","type":"uint256","internalType":"uint256"},{"name":"fee","type":"uint24","internalType":"uint24"},{"name":"sqrtPriceLimitX96","type":"uint160","internalType":"uint160"}]}],"outputs":[{"name":"amountIn","type":"uint256","internalType":"uint256"},{"name":"sqrtPriceX96After","type":"uint160","internalType":"uint160"},{"name":"initializedTicksCrossed","type":"uint32","internalType":"uint32"},{"name":"gasEstimate","type":"uint256","internalType":"uint256"}],"stateMutability":"nonpayable"}],"bytecode":{"object":"0x60e06040523480156200001157600080fd5b5060405162001c5338038062001c53833981016040819052620000349162000079565b6001600160601b0319606093841b811660805291831b821660a05290911b1660c052620000c2565b80516001600160a01b03811681146200007457600080fd5b919050565b6000806000606084860312156200008e578283fd5b62000099846200005c565b9250620000a9602085016200005c565b9150620000b9604085016200005c565b90509250925092565b60805160601c60a05160601c60c05160601c611b51620001026000398061046e52508061066552508061016d52806109965280610a0f5250611b516000f3fe608060405234801561001057600080fd5b50600436106100885760003560e01c8063c45a01551161005b578063c45a015514610106578063c6a5026a1461010e578063cdca175314610121578063d5f394881461013457610088565b806323a69e751461008d5780632f80bb1d146100a25780634aa4a4fc146100ce578063bd21704a146100e3575b600080fd5b6100a061009b366004611719565b61013c565b005b6100b56100b03660046116b3565b6102b7565b6040516100c594939291906119c8565b60405180910390f35b6100d661046c565b6040516100c59190611931565b6100f66100f13660046117d1565b610490565b6040516100c59493929190611a63565b6100d6610663565b6100f661011c3660046117d1565b610687565b6100b561012f3660046116b3565b6107fd565b6100d6610994565b600083138061014b5750600082135b61015457600080fd5b6000806000610162846109b8565b9250925092506101947f00000000000000000000000000000000000000000000000000000000000000008484846109e9565b5060008060008089136101c057856001600160a01b0316856001600160a01b031610888a6000036101db565b846001600160a01b0316866001600160a01b03161089896000035b92509250925060006101ee878787610a08565b9050600080826001600160a01b0316633850c7bd6040518163ffffffff1660e01b815260040160e06040518083038186803b15801561022c57600080fd5b505afa158015610240573d6000803e3d6000fd5b505050506040513d601f19601f8201168201806040525081019061026491906117f3565b505050505091509150851561028a57604051848152826020820152816040820152606081fd5b600054156102a05760005484146102a057600080fd5b604051858152826020820152816040820152606081fd5b600060608060006102c786610a46565b67ffffffffffffffff811180156102dd57600080fd5b50604051908082528060200260200182016040528015610307578160200160208202803683370190505b50925061031386610a46565b67ffffffffffffffff8111801561032957600080fd5b50604051908082528060200260200182016040528015610353578160200160208202803683370190505b50915060005b60008060006103678a6109b8565b9250925092506000806000806103c36040518060a00160405280886001600160a01b03168152602001896001600160a01b031681526020018f81526020018762ffffff16815260200160006001600160a01b0316815250610490565b9350935093509350828b89815181106103d857fe5b60200260200101906001600160a01b031690816001600160a01b031681525050818a898151811061040557fe5b63ffffffff90921660209283029190910190910152929b50968201966001909601958b926104328e610a57565b15610447576104408e610a5f565b9d50610457565b8c9b505050505050505050610463565b50505050505050610359565b92959194509250565b7f000000000000000000000000000000000000000000000000000000000000000081565b6020810151815160608301516000928392839283926001600160a01b03808216908416109284926104c19290610a08565b905086608001516001600160a01b0316600014156104e25760408701516000555b60005a9050816001600160a01b031663128acb0830856105058c60400151610a7c565b6000038c608001516001600160a01b0316600014610527578c6080015161054d565b876105465773fffd8963efd1fc6a506488495d951d5263988d2561054d565b6401000276a45b8d602001518e606001518f6000015160405160200161056e939291906118f6565b6040516020818303038152906040526040518663ffffffff1660e01b815260040161059d959493929190611945565b6040805180830381600087803b1580156105b657600080fd5b505af19250505080156105e6575060408051601f3d908101601f191682019092526105e3918101906116f6565b60015b610656573d808015610614576040519150601f19603f3d011682016040523d82523d6000602084013e610619565b606091505b505a8203945088608001516001600160a01b03166000141561063a57600080555b610645818487610a92565b97509750975097505050505061065c565b50505050505b9193509193565b7f000000000000000000000000000000000000000000000000000000000000000081565b6020810151815160608301516000928392839283926001600160a01b03808216908416109284926106b89290610a08565b905060005a9050816001600160a01b031663128acb0830856106dd8c60400151610a7c565b60808d01516001600160a01b0316156106fa578c60800151610720565b876107195773fffd8963efd1fc6a506488495d951d5263988d25610720565b6401000276a45b8d600001518e606001518f60200151604051602001610741939291906118f6565b6040516020818303038152906040526040518663ffffffff1660e01b8152600401610770959493929190611945565b6040805180830381600087803b15801561078957600080fd5b505af19250505080156107b9575060408051601f3d908101601f191682019092526107b6918101906116f6565b60015b610656573d8080156107e7576040519150601f19603f3d011682016040523d82523d6000602084013e6107ec565b606091505b505a82039450610645818487610a92565b6000606080600061080d86610a46565b67ffffffffffffffff8111801561082357600080fd5b5060405190808252806020026020018201604052801561084d578160200160208202803683370190505b50925061085986610a46565b67ffffffffffffffff8111801561086f57600080fd5b50604051908082528060200260200182016040528015610899578160200160208202803683370190505b50915060005b60008060006108ad8a6109b8565b9250925092506000806000806109096040518060a00160405280896001600160a01b03168152602001886001600160a01b031681526020018f81526020018762ffffff16815260200160006001600160a01b0316815250610687565b9350935093509350828b898151811061091e57fe5b60200260200101906001600160a01b031690816001600160a01b031681525050818a898151811061094b57fe5b63ffffffff90921660209283029190910190910152929b50968201966001909601958b926109788e610a57565b15610447576109868e610a5f565b9d505050505050505061089f565b7f000000000000000000000000000000000000000000000000000000000000000081565b600080806109c68482610b4c565b92506109d3846014610bfc565b90506109e0846017610b4c565b91509193909250565b60006109ff856109fa868686610ca3565b610cf9565b95945050505050565b6000610a3e7f0000000000000000000000000000000000000000000000000000000000000000610a39868686610ca3565b610d1c565b949350505050565b80516017601319909101045b919050565b516042111590565b8051606090610a7690839060179060161901610e00565b92915050565b6000600160ff1b8210610a8e57600080fd5b5090565b600080600080600080876001600160a01b0316633850c7bd6040518163ffffffff1660e01b815260040160e06040518083038186803b158015610ad457600080fd5b505afa158015610ae8573d6000803e3d6000fd5b505050506040513d601f19601f82011682018060405250810190610b0c91906117f3565b50939650610b2194508d9350610f5192505050565b91975095509050610b3c6001600160a01b0389168383610fde565b9350869250505093509350935093565b600081826014011015610b9b576040805162461bcd60e51b8152602060048201526012602482015271746f416464726573735f6f766572666c6f7760701b604482015290519081900360640190fd5b8160140183511015610bec576040805162461bcd60e51b8152602060048201526015602482015274746f416464726573735f6f75744f66426f756e647360581b604482015290519081900360640190fd5b500160200151600160601b900490565b600081826003011015610c4a576040805162461bcd60e51b8152602060048201526011602482015270746f55696e7432345f6f766572666c6f7760781b604482015290519081900360640190fd5b8160030183511015610c9a576040805162461bcd60e51b8152602060048201526014602482015273746f55696e7432345f6f75744f66426f756e647360601b604482015290519081900360640190fd5b50016003015190565b610cab611582565b826001600160a01b0316846001600160a01b03161115610cc9579192915b50604080516060810182526001600160a01b03948516815292909316602083015262ffffff169181019190915290565b6000610d058383610d1c565b9050336001600160a01b03821614610a7657600080fd5b600081602001516001600160a01b031682600001516001600160a01b031610610d4457600080fd5b50805160208083015160409384015184516001600160a01b0394851681850152939091168385015262ffffff166060808401919091528351808403820181526080840185528051908301206001600160f81b031960a085015294901b6bffffffffffffffffffffffff191660a183015260b58201939093527f6ce8eb472fa82df5469c6ab6d485f17c3ad13c8cd7af59b3d4a8026c5ce0f7e260d5808301919091528251808303909101815260f5909101909152805191012090565b60608182601f011015610e4b576040805162461bcd60e51b815260206004820152600e60248201526d736c6963655f6f766572666c6f7760901b604482015290519081900360640190fd5b828284011015610e93576040805162461bcd60e51b815260206004820152600e60248201526d736c6963655f6f766572666c6f7760901b604482015290519081900360640190fd5b81830184511015610edf576040805162461bcd60e51b8152602060048201526011602482015270736c6963655f6f75744f66426f756e647360781b604482015290519081900360640190fd5b606082158015610efe5760405191506000825260208201604052610f48565b6040519150601f8416801560200281840101858101878315602002848b0101015b81831015610f37578051835260209283019201610f1f565b5050858452601f01601f1916604052505b50949350505050565b60008060008351606014610fbd57604484511015610f8a5760405162461bcd60e51b8152600401610f819061199e565b60405180910390fd5b60048401935083806020019051810190610fa49190611767565b60405162461bcd60e51b8152600401610f81919061198b565b83806020019051810190610fd1919061188d565b9250925092509193909250565b60008060008060008060008060088b6001600160a01b031663d0c93a7c6040518163ffffffff1660e01b815260040160206040518083038186803b15801561102557600080fd5b505afa158015611039573d6000803e3d6000fd5b505050506040513d602081101561104f57600080fd5b5051600290810b908c900b8161106157fe5b0560020b901d905060006101008c6001600160a01b031663d0c93a7c6040518163ffffffff1660e01b815260040160206040518083038186803b1580156110a757600080fd5b505afa1580156110bb573d6000803e3d6000fd5b505050506040513d60208110156110d157600080fd5b5051600290810b908d900b816110e357fe5b0560020b816110ee57fe5b079050600060088d6001600160a01b031663d0c93a7c6040518163ffffffff1660e01b815260040160206040518083038186803b15801561112e57600080fd5b505afa158015611142573d6000803e3d6000fd5b505050506040513d602081101561115857600080fd5b5051600290810b908d900b8161116a57fe5b0560020b901d905060006101008e6001600160a01b031663d0c93a7c6040518163ffffffff1660e01b815260040160206040518083038186803b1580156111b057600080fd5b505afa1580156111c4573d6000803e3d6000fd5b505050506040513d60208110156111da57600080fd5b5051600290810b908e900b816111ec57fe5b0560020b816111f757fe5b07905060008160ff166001901b8f6001600160a01b0316635339c296856040518263ffffffff1660e01b8152600401808260010b815260200191505060206040518083038186803b15801561124b57600080fd5b505afa15801561125f573d6000803e3d6000fd5b505050506040513d602081101561127557600080fd5b5051161180156112fb57508d6001600160a01b031663d0c93a7c6040518163ffffffff1660e01b815260040160206040518083038186803b1580156112b957600080fd5b505afa1580156112cd573d6000803e3d6000fd5b505050506040513d60208110156112e357600080fd5b5051600290810b908d900b816112f557fe5b0760020b155b801561130c57508b60020b8d60020b135b945060008360ff166001901b8f6001600160a01b0316635339c296876040518263ffffffff1660e01b8152600401808260010b815260200191505060206040518083038186803b15801561135f57600080fd5b505afa158015611373573d6000803e3d6000fd5b505050506040513d602081101561138957600080fd5b50511611801561140f57508d6001600160a01b031663d0c93a7c6040518163ffffffff1660e01b815260040160206040518083038186803b1580156113cd57600080fd5b505afa1580156113e1573d6000803e3d6000fd5b505050506040513d60208110156113f757600080fd5b5051600290810b908e900b8161140957fe5b0760020b155b801561142057508b60020b8d60020b125b95508160010b8460010b128061144c57508160010b8460010b14801561144c57508060ff168360ff1611155b156114625783995082975081985080965061146f565b8199508097508398508296505b505060001960ff87161b9150505b8560010b8760010b1361153f578560010b8760010b14156114a45760001960ff858103161c165b6000818c6001600160a01b0316635339c2968a6040518263ffffffff1660e01b8152600401808260010b815260200191505060206040518083038186803b1580156114ee57600080fd5b505afa158015611502573d6000803e3d6000fd5b505050506040513d602081101561151857600080fd5b505116905061152681611567565b61ffff169890980197505060019095019460001961147d565b811561154c576001880397505b8215611559576001880397505b505050505050509392505050565b6000805b8215610a765760001983019092169160010161156b565b604080516060810182526000808252602082018190529181019190915290565b600082601f8301126115b2578081fd5b81356115c56115c082611ab1565b611a8d565b8181528460208386010111156115d9578283fd5b816020850160208301379081016020019190915292915050565b8051600281900b8114610a5257600080fd5b600060a08284031215611616578081fd5b60405160a0810181811067ffffffffffffffff8211171561163357fe5b604052905080823561164481611b03565b8152602083013561165481611b03565b602082015260408381013590820152606083013562ffffff8116811461167957600080fd5b606082015261168a60808401611696565b60808201525092915050565b8035610a5281611b03565b805161ffff81168114610a5257600080fd5b600080604083850312156116c5578182fd5b823567ffffffffffffffff8111156116db578283fd5b6116e7858286016115a2565b95602094909401359450505050565b60008060408385031215611708578182fd5b505080516020909101519092909150565b60008060006060848603121561172d578081fd5b8335925060208401359150604084013567ffffffffffffffff811115611751578182fd5b61175d868287016115a2565b9150509250925092565b600060208284031215611778578081fd5b815167ffffffffffffffff81111561178e578182fd5b8201601f8101841361179e578182fd5b80516117ac6115c082611ab1565b8181528560208385010111156117c0578384fd5b6109ff826020830160208601611ad3565b600060a082840312156117e2578081fd5b6117ec8383611605565b9392505050565b600080600080600080600060e0888a03121561180d578283fd5b875161181881611b03565b9650611826602089016115f3565b9550611834604089016116a1565b9450611842606089016116a1565b9350611850608089016116a1565b925060a088015163ffffffff81168114611868578283fd5b60c0890151909250801515811461187d578182fd5b8091505092959891949750929550565b6000806000606084860312156118a1578081fd5b8351925060208401516118b381611b03565b91506118c1604085016115f3565b90509250925092565b600081518084526118e2816020860160208601611ad3565b601f01601f19169290920160200192915050565b606093841b6bffffffffffffffffffffffff19908116825260e89390931b6001600160e81b0319166014820152921b166017820152602b0190565b6001600160a01b0391909116815260200190565b6001600160a01b0386811682528515156020830152604082018590528316606082015260a060808201819052600090611980908301846118ca565b979650505050505050565b6000602082526117ec60208301846118ca565b60208082526010908201526f2ab732bc3832b1ba32b21032b93937b960811b604082015260600190565b600060808201868352602060808185015281875180845260a0860191508289019350845b81811015611a115784516001600160a01b0316835293830193918301916001016119ec565b505084810360408601528651808252908201925081870190845b81811015611a4d57825163ffffffff1685529383019391830191600101611a2b565b5050505060609290920192909252949350505050565b9384526001600160a01b0392909216602084015263ffffffff166040830152606082015260800190565b60405181810167ffffffffffffffff81118282101715611aa957fe5b604052919050565b600067ffffffffffffffff821115611ac557fe5b50601f01601f191660200190565b60005b83811015611aee578181015183820152602001611ad6565b83811115611afd576000848401525b50505050565b6001600160a01b0381168114611b1857600080fd5b5056fea264697066735822122070df03decc5c086f8268026748a04a8df41751cafc39f088f146815eda22903c64736f6c63430007060033","linkReferences":{}},"methodIdentifiers":{"WETH9()":"4aa4a4fc","deployer()":"d5f39488","factory()":"c45a0155","pancakeV3SwapCallback(int256,int256,bytes)":"23a69e75","quoteExactInput(bytes,uint256)":"cdca1753","quoteExactInputSingle((address,address,uint256,uint24,uint160))":"c6a5026a","quoteExactOutput(bytes,uint256)":"2f80bb1d","quoteExactOutputSingle((address,address,uint256,uint24,uint160))":"bd21704a"},"id":218}