{"abi":[{"type":"constructor","inputs":[{"name":"_factoryV2","type":"address","internalType":"address"},{"name":"_deployer","type":"address","internalType":"address"},{"name":"_factoryV3","type":"address","internalType":"address"},{"name":"_positionManager","type":"address","internalType":"address"},{"name":"_stableFactory","type":"address","internalType":"address"},{"name":"_stableInfo","type":"address","internalType":"address"},{"name":"_WETH9","type":"address","internalType":"address"}],"stateMutability":"nonpayable"},{"type":"receive","stateMutability":"payable"},{"type":"function","name":"WETH9","inputs":[],"outputs":[{"name":"","type":"address","internalType":"address"}],"stateMutability":"view"},{"type":"function","name":"approveMax","inputs":[{"name":"token","type":"address","internalType":"address"}],"outputs":[],"stateMutability":"payable"},{"type":"function","name":"approveMaxMinusOne","inputs":[{"name":"token","type":"address","internalType":"address"}],"outputs":[],"stateMutability":"payable"},{"type":"function","name":"approveZeroThenMax","inputs":[{"name":"token","type":"address","internalType":"address"}],"outputs":[],"stateMutability":"payable"},{"type":"function","name":"approveZeroThenMaxMinusOne","inputs":[{"name":"token","type":"address","internalType":"address"}],"outputs":[],"stateMutability":"payable"},{"type":"function","name":"callPositionManager","inputs":[{"name":"data","type":"bytes","internalType":"bytes"}],"outputs":[{"name":"result","type":"bytes","internalType":"bytes"}],"stateMutability":"payable"},{"type":"function","name":"checkOracleSlippage","inputs":[{"name":"paths","type":"bytes[]","internalType":"bytes[]"},{"name":"amounts","type":"uint128[]","internalType":"uint128[]"},{"name":"maximumTickDivergence","type":"uint24","internalType":"uint24"},{"name":"secondsAgo","type":"uint32","internalType":"uint32"}],"outputs":[],"stateMutability":"view"},{"type":"function","name":"checkOracleSlippage","inputs":[{"name":"path","type":"bytes","internalType":"bytes"},{"name":"maximumTickDivergence","type":"uint24","internalType":"uint24"},{"name":"secondsAgo","type":"uint32","internalType":"uint32"}],"outputs":[],"stateMutability":"view"},{"type":"function","name":"deployer","inputs":[],"outputs":[{"name":"","type":"address","internalType":"address"}],"stateMutability":"view"},{"type":"function","name":"exactInput","inputs":[{"name":"params","type":"tuple","internalType":"struct IV3SwapRouter.ExactInputParams","components":[{"name":"path","type":"bytes","internalType":"bytes"},{"name":"recipient","type":"address","internalType":"address"},{"name":"amountIn","type":"uint256","internalType":"uint256"},{"name":"amountOutMinimum","type":"uint256","internalType":"uint256"}]}],"outputs":[{"name":"amountOut","type":"uint256","internalType":"uint256"}],"stateMutability":"payable"},{"type":"function","name":"exactInputSingle","inputs":[{"name":"params","type":"tuple","internalType":"struct IV3SwapRouter.ExactInputSingleParams","components":[{"name":"tokenIn","type":"address","internalType":"address"},{"name":"tokenOut","type":"address","internalType":"address"},{"name":"fee","type":"uint24","internalType":"uint24"},{"name":"recipient","type":"address","internalType":"address"},{"name":"amountIn","type":"uint256","internalType":"uint256"},{"name":"amountOutMinimum","type":"uint256","internalType":"uint256"},{"name":"sqrtPriceLimitX96","type":"uint160","internalType":"uint160"}]}],"outputs":[{"name":"amountOut","type":"uint256","internalType":"uint256"}],"stateMutability":"payable"},{"type":"function","name":"exactInputStableSwap","inputs":[{"name":"path","type":"address[]","internalType":"address[]"},{"name":"flag","type":"uint256[]","internalType":"uint256[]"},{"name":"amountIn","type":"uint256","internalType":"uint256"},{"name":"amountOutMin","type":"uint256","internalType":"uint256"},{"name":"to","type":"address","internalType":"address"}],"outputs":[{"name":"amountOut","type":"uint256","internalType":"uint256"}],"stateMutability":"payable"},{"type":"function","name":"exactOutput","inputs":[{"name":"params","type":"tuple","internalType":"struct IV3SwapRouter.ExactOutputParams","components":[{"name":"path","type":"bytes","internalType":"bytes"},{"name":"recipient","type":"address","internalType":"address"},{"name":"amountOut","type":"uint256","internalType":"uint256"},{"name":"amountInMaximum","type":"uint256","internalType":"uint256"}]}],"outputs":[{"name":"amountIn","type":"uint256","internalType":"uint256"}],"stateMutability":"payable"},{"type":"function","name":"exactOutputSingle","inputs":[{"name":"params","type":"tuple","internalType":"struct IV3SwapRouter.ExactOutputSingleParams","components":[{"name":"tokenIn","type":"address","internalType":"address"},{"name":"tokenOut","type":"address","internalType":"address"},{"name":"fee","type":"uint24","internalType":"uint24"},{"name":"recipient","type":"address","internalType":"address"},{"name":"amountOut","type":"uint256","internalType":"uint256"},{"name":"amountInMaximum","type":"uint256","internalType":"uint256"},{"name":"sqrtPriceLimitX96","type":"uint160","internalType":"uint160"}]}],"outputs":[{"name":"amountIn","type":"uint256","internalType":"uint256"}],"stateMutability":"payable"},{"type":"function","name":"exactOutputStableSwap","inputs":[{"name":"path","type":"address[]","internalType":"address[]"},{"name":"flag","type":"uint256[]","internalType":"uint256[]"},{"name":"amountOut","type":"uint256","internalType":"uint256"},{"name":"amountInMax","type":"uint256","internalType":"uint256"},{"name":"to","type":"address","internalType":"address"}],"outputs":[{"name":"amountIn","type":"uint256","internalType":"uint256"}],"stateMutability":"payable"},{"type":"function","name":"factory","inputs":[],"outputs":[{"name":"","type":"address","internalType":"address"}],"stateMutability":"view"},{"type":"function","name":"factoryV2","inputs":[],"outputs":[{"name":"","type":"address","internalType":"address"}],"stateMutability":"view"},{"type":"function","name":"getApprovalType","inputs":[{"name":"token","type":"address","internalType":"address"},{"name":"amount","type":"uint256","internalType":"uint256"}],"outputs":[{"name":"","type":"uint8","internalType":"enum IApproveAndCall.ApprovalType"}],"stateMutability":"nonpayable"},{"type":"function","name":"increaseLiquidity","inputs":[{"name":"params","type":"tuple","internalType":"struct IApproveAndCall.IncreaseLiquidityParams","components":[{"name":"token0","type":"address","internalType":"address"},{"name":"token1","type":"address","internalType":"address"},{"name":"tokenId","type":"uint256","internalType":"uint256"},{"name":"amount0Min","type":"uint256","internalType":"uint256"},{"name":"amount1Min","type":"uint256","internalType":"uint256"}]}],"outputs":[{"name":"result","type":"bytes","internalType":"bytes"}],"stateMutability":"payable"},{"type":"function","name":"mint","inputs":[{"name":"params","type":"tuple","internalType":"struct IApproveAndCall.MintParams","components":[{"name":"token0","type":"address","internalType":"address"},{"name":"token1","type":"address","internalType":"address"},{"name":"fee","type":"uint24","internalType":"uint24"},{"name":"tickLower","type":"int24","internalType":"int24"},{"name":"tickUpper","type":"int24","internalType":"int24"},{"name":"amount0Min","type":"uint256","internalType":"uint256"},{"name":"amount1Min","type":"uint256","internalType":"uint256"},{"name":"recipient","type":"address","internalType":"address"}]}],"outputs":[{"name":"result","type":"bytes","internalType":"bytes"}],"stateMutability":"payable"},{"type":"function","name":"multicall","inputs":[{"name":"previousBlockhash","type":"bytes32","internalType":"bytes32"},{"name":"data","type":"bytes[]","internalType":"bytes[]"}],"outputs":[{"name":"","type":"bytes[]","internalType":"bytes[]"}],"stateMutability":"payable"},{"type":"function","name":"multicall","inputs":[{"name":"deadline","type":"uint256","internalType":"uint256"},{"name":"data","type":"bytes[]","internalType":"bytes[]"}],"outputs":[{"name":"","type":"bytes[]","internalType":"bytes[]"}],"stateMutability":"payable"},{"type":"function","name":"multicall","inputs":[{"name":"data","type":"bytes[]","internalType":"bytes[]"}],"outputs":[{"name":"results","type":"bytes[]","internalType":"bytes[]"}],"stateMutability":"payable"},{"type":"function","name":"owner","inputs":[],"outputs":[{"name":"","type":"address","internalType":"address"}],"stateMutability":"view"},{"type":"function","name":"pancakeV3SwapCallback","inputs":[{"name":"amount0Delta","type":"int256","internalType":"int256"},{"name":"amount1Delta","type":"int256","internalType":"int256"},{"name":"_data","type":"bytes","internalType":"bytes"}],"outputs":[],"stateMutability":"nonpayable"},{"type":"function","name":"positionManager","inputs":[],"outputs":[{"name":"","type":"address","internalType":"address"}],"stateMutability":"view"},{"type":"function","name":"pull","inputs":[{"name":"token","type":"address","internalType":"address"},{"name":"value","type":"uint256","internalType":"uint256"}],"outputs":[],"stateMutability":"payable"},{"type":"function","name":"refundETH","inputs":[],"outputs":[],"stateMutability":"payable"},{"type":"function","name":"renounceOwnership","inputs":[],"outputs":[],"stateMutability":"nonpayable"},{"type":"function","name":"selfPermit","inputs":[{"name":"token","type":"address","internalType":"address"},{"name":"value","type":"uint256","internalType":"uint256"},{"name":"deadline","type":"uint256","internalType":"uint256"},{"name":"v","type":"uint8","internalType":"uint8"},{"name":"r","type":"bytes32","internalType":"bytes32"},{"name":"s","type":"bytes32","internalType":"bytes32"}],"outputs":[],"stateMutability":"payable"},{"type":"function","name":"selfPermitAllowed","inputs":[{"name":"token","type":"address","internalType":"address"},{"name":"nonce","type":"uint256","internalType":"uint256"},{"name":"expiry","type":"uint256","internalType":"uint256"},{"name":"v","type":"uint8","internalType":"uint8"},{"name":"r","type":"bytes32","internalType":"bytes32"},{"name":"s","type":"bytes32","internalType":"bytes32"}],"outputs":[],"stateMutability":"payable"},{"type":"function","name":"selfPermitAllowedIfNecessary","inputs":[{"name":"token","type":"address","internalType":"address"},{"name":"nonce","type":"uint256","internalType":"uint256"},{"name":"expiry","type":"uint256","internalType":"uint256"},{"name":"v","type":"uint8","internalType":"uint8"},{"name":"r","type":"bytes32","internalType":"bytes32"},{"name":"s","type":"bytes32","internalType":"bytes32"}],"outputs":[],"stateMutability":"payable"},{"type":"function","name":"selfPermitIfNecessary","inputs":[{"name":"token","type":"address","internalType":"address"},{"name":"value","type":"uint256","internalType":"uint256"},{"name":"deadline","type":"uint256","internalType":"uint256"},{"name":"v","type":"uint8","internalType":"uint8"},{"name":"r","type":"bytes32","internalType":"bytes32"},{"name":"s","type":"bytes32","internalType":"bytes32"}],"outputs":[],"stateMutability":"payable"},{"type":"function","name":"setStableSwap","inputs":[{"name":"_factory","type":"address","internalType":"address"},{"name":"_info","type":"address","internalType":"address"}],"outputs":[],"stateMutability":"nonpayable"},{"type":"function","name":"stableSwapFactory","inputs":[],"outputs":[{"name":"","type":"address","internalType":"address"}],"stateMutability":"view"},{"type":"function","name":"stableSwapInfo","inputs":[],"outputs":[{"name":"","type":"address","internalType":"address"}],"stateMutability":"view"},{"type":"function","name":"swapExactTokensForTokens","inputs":[{"name":"amountIn","type":"uint256","internalType":"uint256"},{"name":"amountOutMin","type":"uint256","internalType":"uint256"},{"name":"path","type":"address[]","internalType":"address[]"},{"name":"to","type":"address","internalType":"address"}],"outputs":[{"name":"amountOut","type":"uint256","internalType":"uint256"}],"stateMutability":"payable"},{"type":"function","name":"swapTokensForExactTokens","inputs":[{"name":"amountOut","type":"uint256","internalType":"uint256"},{"name":"amountInMax","type":"uint256","internalType":"uint256"},{"name":"path","type":"address[]","internalType":"address[]"},{"name":"to","type":"address","internalType":"address"}],"outputs":[{"name":"amountIn","type":"uint256","internalType":"uint256"}],"stateMutability":"payable"},{"type":"function","name":"sweepToken","inputs":[{"name":"token","type":"address","internalType":"address"},{"name":"amountMinimum","type":"uint256","internalType":"uint256"},{"name":"recipient","type":"address","internalType":"address"}],"outputs":[],"stateMutability":"payable"},{"type":"function","name":"sweepToken","inputs":[{"name":"token","type":"address","internalType":"address"},{"name":"amountMinimum","type":"uint256","internalType":"uint256"}],"outputs":[],"stateMutability":"payable"},{"type":"function","name":"sweepTokenWithFee","inputs":[{"name":"token","type":"address","internalType":"address"},{"name":"amountMinimum","type":"uint256","internalType":"uint256"},{"name":"feeBips","type":"uint256","internalType":"uint256"},{"name":"feeRecipient","type":"address","internalType":"address"}],"outputs":[],"stateMutability":"payable"},{"type":"function","name":"sweepTokenWithFee","inputs":[{"name":"token","type":"address","internalType":"address"},{"name":"amountMinimum","type":"uint256","internalType":"uint256"},{"name":"recipient","type":"address","internalType":"address"},{"name":"feeBips","type":"uint256","internalType":"uint256"},{"name":"feeRecipient","type":"address","internalType":"address"}],"outputs":[],"stateMutability":"payable"},{"type":"function","name":"transferOwnership","inputs":[{"name":"newOwner","type":"address","internalType":"address"}],"outputs":[],"stateMutability":"nonpayable"},{"type":"function","name":"unwrapWETH9","inputs":[{"name":"amountMinimum","type":"uint256","internalType":"uint256"},{"name":"recipient","type":"address","internalType":"address"}],"outputs":[],"stateMutability":"payable"},{"type":"function","name":"unwrapWETH9WithFee","inputs":[{"name":"amountMinimum","type":"uint256","internalType":"uint256"},{"name":"recipient","type":"address","internalType":"address"},{"name":"feeBips","type":"uint256","internalType":"uint256"},{"name":"feeRecipient","type":"address","internalType":"address"}],"outputs":[],"stateMutability":"payable"},{"type":"function","name":"unwrapWETH9WithFee","inputs":[{"name":"amountMinimum","type":"uint256","internalType":"uint256"},{"name":"feeBips","type":"uint256","internalType":"uint256"},{"name":"feeRecipient","type":"address","internalType":"address"}],"outputs":[],"stateMutability":"payable"},{"type":"function","name":"wrapETH","inputs":[{"name":"value","type":"uint256","internalType":"uint256"}],"outputs":[],"stateMutability":"payable"},{"type":"event","name":"OwnershipTransferred","inputs":[{"name":"previousOwner","type":"address","indexed":true,"internalType":"address"},{"name":"newOwner","type":"address","indexed":true,"internalType":"address"}],"anonymous":false},{"type":"event","name":"SetStableSwap","inputs":[{"name":"factory","type":"address","indexed":true,"internalType":"address"},{"name":"info","type":"address","indexed":true,"internalType":"address"}],"anonymous":false}],"bytecode":{"object":"0x6101206040526000196002553480156200001857600080fd5b5060405162006206380380620062068339810160408190526200003b9162000125565b6001600160601b0319606088811b821660805285811b821660a05287811b821660c05286811b821660e05282901b1661010052828260006200007c62000104565b600080546001600160a01b0319166001600160a01b0383169081178255604051929350917f8be0079c531659141344cd1fd0a4f28419497f9722a3daafe3b4186f6b6457e0908290a35060018055600380546001600160a01b039384166001600160a01b0319918216179091556004805492909316911617905550620001b995505050505050565b3390565b80516001600160a01b03811681146200012057600080fd5b919050565b600080600080600080600060e0888a03121562000140578283fd5b6200014b8862000108565b96506200015b6020890162000108565b95506200016b6040890162000108565b94506200017b6060890162000108565b93506200018b6080890162000108565b92506200019b60a0890162000108565b9150620001ab60c0890162000108565b905092959891949750929550565b60805160601c60a05160601c60c05160601c60e05160601c6101005160601c615f95620002716000398061029c5280610ae4528061152a528061161552806116a252806119815280611a6c52806130cc528061311252806131865250806124e7525080610c0f52806125175280612b4e5280612d6952806145955250806119325280611d2c528061254e5280613728525080610f045280610fca52806112da5280611850528061336952806135d15250615f956000f3fe60806040526004361061028c5760003560e01c80639b2c0a371161015a578063d4ef38de116100c1578063efdeed8e1161007a578063efdeed8e14610684578063f100b205146106a4578063f25801a7146106b7578063f2d5d56b146106d7578063f2fde38b146106ea578063f3995c671461070a576102fc565b8063d4ef38de146105f6578063d5f3948814610609578063dee00f351461061e578063df2ab5bb1461064b578063e0e189a01461065e578063e90a182f14610671576102fc565b8063b4c4e55511610113578063b4c4e55514610580578063b858183f14610593578063b85aa7af146105a6578063c2e3140a146105bb578063c45a0155146105ce578063cab372ce146105e3576102fc565b80639b2c0a371461050e578063a4a78f0c14610521578063ab3fdd5014610534578063ac9650d814610547578063b3a2af131461055a578063b45542311461056d576102fc565b8063472b43f3116101fe5780635ae401dc116101b75780635ae401dc14610494578063639d71a9146104a757806368e0d4e1146104ba578063715018a6146104cf578063791b98bc146104e45780638da5cb5b146104f9576102fc565b8063472b43f31461041157806349404b7c146104245780634aa4a4fc146104375780635023b4df14610459578063571ac8b01461046c57806357c799611461047f576102fc565b80631f0464d1116102505780631f0464d11461037857806323a69e751461039857806324dec034146103b85780633068c554146103d857806342712a67146103eb5780634659a494146103fe576102fc565b806304e45aaf1461030157806309b813461461032a57806311ed56c91461033d57806312210e8a1461035d5780631c58db4f14610365576102fc565b366102fc57336001600160a01b037f000000000000000000000000000000000000000000000000000000000000000016146102fa576040805162461bcd60e51b81526020600482015260096024820152684e6f7420574554483960b81b604482015290519081900360640190fd5b005b600080fd5b61031461030f366004615532565b61071d565b6040516103219190615dab565b60405180910390f35b6103146103383660046155cc565b610889565b61035061034b366004615625565b61096d565b6040516103219190615c46565b6102fa610ad0565b6102fa6103733660046157a7565b610ae2565b61038b61038636600461529c565b610b59565b6040516103219190615be6565b3480156103a457600080fd5b506102fa6103b33660046153aa565b610bb3565b3480156103c457600080fd5b506102fa6103d3366004614e78565b610d50565b6102fa6103e6366004614fa8565b610e51565b6103146103f9366004615893565b610e64565b6102fa61040c366004614ff1565b6110fc565b61031461041f366004615893565b61118a565b6102fa6104323660046157d7565b611526565b34801561044357600080fd5b5061044c6116a0565b6040516103219190615a3b565b610314610467366004615603565b6116c4565b6102fa61047a366004614e39565b6117be565b34801561048b57600080fd5b5061044c6117d6565b61038b6104a236600461529c565b6117e5565b6102fa6104b5366004614e39565b61183a565b3480156104c657600080fd5b5061044c61184e565b3480156104db57600080fd5b506102fa611872565b3480156104f057600080fd5b5061044c611930565b34801561050557600080fd5b5061044c611954565b6102fa61051c3660046157fb565b611963565b6102fa61052f366004614ff1565b611b2d565b6102fa610542366004614e39565b611bbe565b61038b6105553660046150e4565b611bde565b6103506105683660046152e5565b611d26565b61031461057b366004615051565b611ddd565b61031461058e366004615051565b612067565b6103146105a136600461548d565b612297565b3480156105b257600080fd5b5061044c612447565b6102fa6105c9366004614ff1565b612456565b3480156105da57600080fd5b5061044c6124e5565b6102fa6105f1366004614e39565b611bd2565b6102fa610604366004615839565b612509565b34801561061557600080fd5b5061044c612515565b34801561062a57600080fd5b5061063e610639366004614ede565b612539565b6040516103219190615c59565b6102fa610659366004614f09565b612661565b6102fa61066c366004614f4a565b612739565b6102fa61067f366004614ede565b612860565b34801561069057600080fd5b506102fa61069f366004615123565b61286f565b6103506106b2366004615614565b612894565b3480156106c357600080fd5b506102fa6106d2366004615317565b612916565b6102fa6106e5366004614ede565b61293a565b3480156106f657600080fd5b506102fa610705366004614e39565b612946565b6102fa610718366004614ff1565b612a5a565b600060026001541415610765576040805162461bcd60e51b815260206004820152601f6024820152600080516020615f1a833981519152604482015290519081900360640190fd5b600260015560808201516000906107fd575081516040516370a0823160e01b81526001916001600160a01b0316906370a08231906107a7903090600401615a3b565b60206040518083038186803b1580156107bf57600080fd5b505afa1580156107d3573d6000803e3d6000fd5b505050506040513d601f19601f820116820180604052508101906107f791906157bf565b60808401525b61086c836080015184606001518560c001516040518060400160405280886000015189604001518a6020015160405160200161083b939291906159d4565b60405160208183030381529060405281526020018661085a573361085c565b305b6001600160a01b03169052612acc565b91508260a0015182101561087f57600080fd5b5060018055919050565b6000600260015414156108d1576040805162461bcd60e51b815260206004820152601f6024820152600080516020615f1a833981519152604482015290519081900360640190fd5b6002600155610948604083018035906108ed9060208601614e39565b60408051808201909152600090806109058880615e12565b8080601f01602080910402602001604051908101604052809392919081815260200183838082843760009201919091525050509082525033602090910152612ce7565b5050600254606082013581111561095e57600080fd5b60001960025560018055919050565b604080516101608101909152606090610ac890634418b22b60e11b90806109976020870187614e39565b6001600160a01b031681526020018560200160208101906109b89190614e39565b6001600160a01b031681526020016109d6606087016040880161578d565b62ffffff1681526020016109f0608087016060880161536b565b60020b8152602001610a0860a087016080880161536b565b60020b8152602090810190610a2890610a2390880188614e39565b612f2b565b8152602001610a43866020016020810190610a239190614e39565b815260a0860135602082015260c08601356040820152606001610a6d610100870160e08801614e39565b6001600160a01b03168152602001600019815250604051602401610a919190615cb1565b60408051601f198184030181529190526020810180516001600160e01b03166001600160e01b031990931692909217909152611d26565b90505b919050565b4715610ae057610ae03347612faa565b565b7f00000000000000000000000000000000000000000000000000000000000000006001600160a01b031663d0e30db0826040518263ffffffff1660e01b81526004016000604051808303818588803b158015610b3d57600080fd5b505af1158015610b51573d6000803e3d6000fd5b505050505050565b60608380600143034014610ba0576040805162461bcd60e51b8152602060048201526009602482015268084d8dec6d6d0c2e6d60bb1b604482015290519081900360640190fd5b610baa8484611bde565b95945050505050565b6000841380610bc25750600083135b610bcb57600080fd5b6000610bd982840184615637565b90506000806000610bed8460000151613099565b92509250925073__$708233afd6c8f5dd23d33a215fb048c749$__638bdb19257f00000000000000000000000000000000000000000000000000000000000000008585856040518563ffffffff1660e01b8152600401610c509493929190615a8c565b60206040518083038186803b158015610c6857600080fd5b505af4158015610c7c573d6000803e3d6000fd5b505050506040513d601f19601f82011682018060405250810190610ca09190614e5c565b5060008060008a13610cc757846001600160a01b0316846001600160a01b03161089610cde565b836001600160a01b0316856001600160a01b0316108a5b915091508115610cfd57610cf885876020015133846130ca565b610d44565b8551610d089061325a565b15610d2d578551610d1890613262565b8652610d278133600089612ce7565b50610d44565b80600281905550610d4484876020015133846130ca565b50505050505050505050565b610d58613279565b6001600160a01b0316610d69611954565b6001600160a01b031614610dc4576040805162461bcd60e51b815260206004820181905260248201527f4f776e61626c653a2063616c6c6572206973206e6f7420746865206f776e6572604482015290519081900360640190fd5b6001600160a01b03821615801590610de457506001600160a01b03811615155b610ded57600080fd5b600380546001600160a01b038085166001600160a01b0319928316179283905560048054858316931692909217918290556040519181169216907f26e41379222b54b0470031bc11852ad23058ffb8983f7cc0e18257d6f7afca9d90600090a35050565b610e5e8484338585612739565b50505050565b600060026001541415610eac576040805162461bcd60e51b815260206004820152601f6024820152600080516020615f1a833981519152604482015290519081900360640190fd5b6002600155600084848281610ebd57fe5b9050602002016020810190610ed29190614e39565b604051630c90945960e11b815290915073__$708233afd6c8f5dd23d33a215fb048c749$__9063192128b290610f32907f0000000000000000000000000000000000000000000000000000000000000000908b908a908a90600401615bb4565b60006040518083038186803b158015610f4a57600080fd5b505af4158015610f5e573d6000803e3d6000fd5b505050506040513d6000823e601f3d908101601f19168201604052610f8691908101906151f3565b600081518110610f9257fe5b6020026020010151915085821115610fa957600080fd5b611080813373__$708233afd6c8f5dd23d33a215fb048c749$__636d91c0e27f0000000000000000000000000000000000000000000000000000000000000000868b8b6001818110610ff757fe5b905060200201602081019061100c9190614e39565b6040518463ffffffff1660e01b815260040161102a93929190615a69565b60206040518083038186803b15801561104257600080fd5b505af4158015611056573d6000803e3d6000fd5b505050506040513d601f19601f8201168201806040525081019061107a9190614e5c565b856130ca565b6001600160a01b0383166001141561109a573392506110b0565b6001600160a01b038316600214156110b0573092505b6110ee85858080602002602001604051908101604052809392919081815260200183836020028082843760009201919091525087925061327d915050565b506001805595945050505050565b604080516323f2ebc360e21b815233600482015230602482015260448101879052606481018690526001608482015260ff851660a482015260c4810184905260e4810183905290516001600160a01b03881691638fcbaf0c9161010480830192600092919082900301818387803b15801561117657600080fd5b505af1158015610d44573d6000803e3d6000fd5b6000600260015414156111d2576040805162461bcd60e51b815260206004820152601f6024820152600080516020615f1a833981519152604482015290519081900360640190fd5b60026001556000848482816111e357fe5b90506020020160208101906111f89190614e39565b905060008585600019810181811061120c57fe5b90506020020160208101906112219190614e39565b90506000886112ad57506040516370a0823160e01b81526001906001600160a01b038416906370a082319061125a903090600401615a3b565b60206040518083038186803b15801561127257600080fd5b505afa158015611286573d6000803e3d6000fd5b505050506040513d601f19601f820116820180604052508101906112aa91906157bf565b98505b61139083826112bc57336112be565b305b73__$708233afd6c8f5dd23d33a215fb048c749$__636d91c0e27f0000000000000000000000000000000000000000000000000000000000000000888d8d600181811061130757fe5b905060200201602081019061131c9190614e39565b6040518463ffffffff1660e01b815260040161133a93929190615a69565b60206040518083038186803b15801561135257600080fd5b505af4158015611366573d6000803e3d6000fd5b505050506040513d601f19601f8201168201806040525081019061138a9190614e5c565b8c6130ca565b6001600160a01b038516600114156113aa573394506113c0565b6001600160a01b038516600214156113c0573094505b6040516370a0823160e01b81526000906001600160a01b038416906370a08231906113ef908990600401615a3b565b60206040518083038186803b15801561140757600080fd5b505afa15801561141b573d6000803e3d6000fd5b505050506040513d601f19601f8201168201806040525081019061143f91906157bf565b905061147f8888808060200260200160405190810160405280939291908181526020018383602002808284376000920191909152508a925061327d915050565b61150581846001600160a01b03166370a08231896040518263ffffffff1660e01b81526004016114af9190615a3b565b60206040518083038186803b1580156114c757600080fd5b505afa1580156114db573d6000803e3d6000fd5b505050506040513d601f19601f820116820180604052508101906114ff91906157bf565b906136ff565b94508885101561151457600080fd5b50506001805550909695505050505050565b60007f00000000000000000000000000000000000000000000000000000000000000006001600160a01b03166370a08231306040518263ffffffff1660e01b815260040180826001600160a01b0316815260200191505060206040518083038186803b15801561159557600080fd5b505afa1580156115a9573d6000803e3d6000fd5b505050506040513d60208110156115bf57600080fd5b505190508281101561160d576040805162461bcd60e51b8152602060048201526012602482015271496e73756666696369656e7420574554483960701b604482015290519081900360640190fd5b801561169b577f00000000000000000000000000000000000000000000000000000000000000006001600160a01b0316632e1a7d4d826040518263ffffffff1660e01b815260040180828152602001915050600060405180830381600087803b15801561167957600080fd5b505af115801561168d573d6000803e3d6000fd5b5050505061169b8282612faa565b505050565b7f000000000000000000000000000000000000000000000000000000000000000081565b60006002600154141561170c576040805162461bcd60e51b815260206004820152601f6024820152600080516020615f1a833981519152604482015290519081900360640190fd5b60026001556117ab608083018035906117289060608601614e39565b61173860e0860160c08701614e39565b60405180604001604052808760200160208101906117569190614e39565b61176660608a0160408b0161578d565b61177360208b018b614e39565b604051602001611785939291906159d4565b6040516020818303038152906040528152602001336001600160a01b0316815250612ce7565b90508160a0013581111561095e57600080fd5b6117ca8160001961370f565b6117d357600080fd5b50565b6003546001600160a01b031681565b606083806117f1613803565b1115610ba0576040805162461bcd60e51b8152602060048201526013602482015272151c985b9cd858dd1a5bdb881d1bdbc81bdb19606a1b604482015290519081900360640190fd5b61184581600061370f565b6117be57600080fd5b7f000000000000000000000000000000000000000000000000000000000000000081565b61187a613279565b6001600160a01b031661188b611954565b6001600160a01b0316146118e6576040805162461bcd60e51b815260206004820181905260248201527f4f776e61626c653a2063616c6c6572206973206e6f7420746865206f776e6572604482015290519081900360640190fd5b600080546040516001600160a01b03909116907f8be0079c531659141344cd1fd0a4f28419497f9722a3daafe3b4186f6b6457e0908390a3600080546001600160a01b0319169055565b7f000000000000000000000000000000000000000000000000000000000000000081565b6000546001600160a01b031690565b600082118015611974575060648211155b61197d57600080fd5b60007f00000000000000000000000000000000000000000000000000000000000000006001600160a01b03166370a08231306040518263ffffffff1660e01b815260040180826001600160a01b0316815260200191505060206040518083038186803b1580156119ec57600080fd5b505afa158015611a00573d6000803e3d6000fd5b505050506040513d6020811015611a1657600080fd5b5051905084811015611a64576040805162461bcd60e51b8152602060048201526012602482015271496e73756666696369656e7420574554483960701b604482015290519081900360640190fd5b8015611b26577f00000000000000000000000000000000000000000000000000000000000000006001600160a01b0316632e1a7d4d826040518263ffffffff1660e01b815260040180828152602001915050600060405180830381600087803b158015611ad057600080fd5b505af1158015611ae4573d6000803e3d6000fd5b505050506000612710611b00858461380790919063ffffffff16565b81611b0757fe5b0490508015611b1a57611b1a8382612faa565b610b5185828403612faa565b5050505050565b60408051636eb1769f60e11b81523360048201523060248201529051600019916001600160a01b0389169163dd62ed3e91604480820192602092909190829003018186803b158015611b7e57600080fd5b505afa158015611b92573d6000803e3d6000fd5b505050506040513d6020811015611ba857600080fd5b50511015610b5157610b518686868686866110fc565b611bc981600061370f565b611bd257600080fd5b6117ca8160011961370f565b6060816001600160401b0381118015611bf657600080fd5b50604051908082528060200260200182016040528015611c2a57816020015b6060815260200190600190039081611c155790505b50905060005b82811015611d1f5760008030868685818110611c4857fe5b9050602002810190611c5a9190615e12565b604051611c68929190615a0f565b600060405180830381855af49150503d8060008114611ca3576040519150601f19603f3d011682016040523d82523d6000602084013e611ca8565b606091505b509150915081611cfd57604481511015611cc157600080fd5b60048101905080806020019051810190611cdb9190615424565b60405162461bcd60e51b8152600401611cf49190615c46565b60405180910390fd5b80848481518110611d0a57fe5b60209081029190910101525050600101611c30565b5092915050565b606060007f00000000000000000000000000000000000000000000000000000000000000006001600160a01b031683604051611d629190615a1f565b6000604051808303816000865af19150503d8060008114611d9f576040519150601f19603f3d011682016040523d82523d6000602084013e611da4565b606091505b509250905080611dd757604482511015611dbd57600080fd5b60048201915081806020019051810190611cdb9190615424565b50919050565b600060026001541415611e25576040805162461bcd60e51b815260206004820152601f6024820152600080516020615f1a833981519152604482015290519081900360640190fd5b6002600155600088888281611e3657fe5b9050602002016020810190611e4b9190614e39565b9050600089896000198101818110611e5f57fe5b9050602002016020810190611e749190614e39565b9050600086611f0057506040516370a0823160e01b81526001906001600160a01b038416906370a0823190611ead903090600401615a3b565b60206040518083038186803b158015611ec557600080fd5b505afa158015611ed9573d6000803e3d6000fd5b505050506040513d601f19601f82011682018060405250810190611efd91906157bf565b96505b80611f1157611f118333308a6130ca565b611f7e8b8b8080602002602001604051908101604052809392919081815260200183836020028082843760009201919091525050604080516020808f0282810182019093528e82529093508e92508d91829185019084908082843760009201919091525061382b92505050565b6040516370a0823160e01b81526001600160a01b038316906370a0823190611faa903090600401615a3b565b60206040518083038186803b158015611fc257600080fd5b505afa158015611fd6573d6000803e3d6000fd5b505050506040513d601f19601f82011682018060405250810190611ffa91906157bf565b93508584101561200957600080fd5b6001600160a01b0385166001141561202357339450612039565b6001600160a01b03851660021415612039573094505b6001600160a01b038516301461205557612055823087876130ca565b50506001805550979650505050505050565b6000600260015414156120af576040805162461bcd60e51b815260206004820152601f6024820152600080516020615f1a833981519152604482015290519081900360640190fd5b600260015560035460048054604051635923cab360e01b815273__$708233afd6c8f5dd23d33a215fb048c749$__93635923cab393612107936001600160a01b03928316939216918e918e918e918e918e9101615ae4565b60006040518083038186803b15801561211f57600080fd5b505af4158015612133573d6000803e3d6000fd5b505050506040513d6000823e601f3d908101601f1916820160405261215b91908101906151f3565b60008151811061216757fe5b602002602001015190508281111561217e57600080fd5b6121ab8888600081811061218e57fe5b90506020020160208101906121a39190614e39565b3330846130ca565b61221888888080602002602001604051908101604052809392919081815260200183836020028082843760009201919091525050604080516020808c0282810182019093528b82529093508b92508a91829185019084908082843760009201919091525061382b92505050565b6001600160a01b0382166001141561223257339150612248565b6001600160a01b03821660021415612248573091505b6001600160a01b0382163014612288576122888888600019810181811061226b57fe5b90506020020160208101906122809190614e39565b3084876130ca565b60018055979650505050505050565b6000600260015414156122df576040805162461bcd60e51b815260206004820152601f6024820152600080516020615f1a833981519152604482015290519081900360640190fd5b6002600155604082015160009061238b576001905060006123038460000151613099565b50506040516370a0823160e01b81529091506001600160a01b038216906370a0823190612334903090600401615a3b565b60206040518083038186803b15801561234c57600080fd5b505afa158015612360573d6000803e3d6000fd5b505050506040513d601f19601f8201168201806040525081019061238491906157bf565b6040850152505b600081612398573361239a565b305b90505b60006123ac856000015161325a565b90506123f88560400151826123c55786602001516123c7565b305b600060405180604001604052806123e18b60000151613a3c565b8152602001876001600160a01b0316815250612acc565b6040860152801561241857845130925061241190613262565b8552612425565b846040015193505061242b565b5061239d565b836060015183101561243c57600080fd5b505060018055919050565b6004546001600160a01b031681565b60408051636eb1769f60e11b8152336004820152306024820152905186916001600160a01b0389169163dd62ed3e91604480820192602092909190829003018186803b1580156124a557600080fd5b505afa1580156124b9573d6000803e3d6000fd5b505050506040513d60208110156124cf57600080fd5b50511015610b5157610b51868686868686612a5a565b7f000000000000000000000000000000000000000000000000000000000000000081565b61169b83338484611963565b7f000000000000000000000000000000000000000000000000000000000000000081565b600081836001600160a01b031663dd62ed3e307f00000000000000000000000000000000000000000000000000000000000000006040518363ffffffff1660e01b815260040161258a929190615a4f565b60206040518083038186803b1580156125a257600080fd5b505afa1580156125b6573d6000803e3d6000fd5b505050506040513d601f19601f820116820180604052508101906125da91906157bf565b106125e75750600061265b565b6125f38360001961370f565b156126005750600161265b565b61260c8360011961370f565b156126195750600261265b565b61262483600061370f565b61262d57600080fd5b6126398360001961370f565b156126465750600361265b565b6126528360011961370f565b156102fc575060045b92915050565b6000836001600160a01b03166370a08231306040518263ffffffff1660e01b815260040180826001600160a01b0316815260200191505060206040518083038186803b1580156126b057600080fd5b505afa1580156126c4573d6000803e3d6000fd5b505050506040513d60208110156126da57600080fd5b5051905082811015612728576040805162461bcd60e51b815260206004820152601260248201527124b739bab33334b1b4b2b73a103a37b5b2b760711b604482015290519081900360640190fd5b8015610e5e57610e5e848383613a4b565b60008211801561274a575060648211155b61275357600080fd5b6000856001600160a01b03166370a08231306040518263ffffffff1660e01b815260040180826001600160a01b0316815260200191505060206040518083038186803b1580156127a257600080fd5b505afa1580156127b6573d6000803e3d6000fd5b505050506040513d60208110156127cc57600080fd5b505190508481101561281a576040805162461bcd60e51b815260206004820152601260248201527124b739bab33334b1b4b2b73a103a37b5b2b760711b604482015290519081900360640190fd5b8015610b5157600061271061282f8386613807565b8161283657fe5b049050801561284a5761284a878483613a4b565b6128578786838503613a4b565b50505050505050565b61286b828233612661565b5050565b60008061287d868685613b92565b915091508362ffffff1681830312610b5157600080fd5b6060610ac863219f5d1760e01b6040518060c00160405280856040013581526020016128cc866000016020810190610a239190614e39565b81526020016128e7866020016020810190610a239190614e39565b81526020018560600135815260200185608001358152602001600019815250604051602401610a919190615c6d565b6000806129238584613d88565b915091508362ffffff1681830312611b2657600080fd5b61286b82333084613f5f565b61294e613279565b6001600160a01b031661295f611954565b6001600160a01b0316146129ba576040805162461bcd60e51b815260206004820181905260248201527f4f776e61626c653a2063616c6c6572206973206e6f7420746865206f776e6572604482015290519081900360640190fd5b6001600160a01b0381166129ff5760405162461bcd60e51b8152600401808060200182810382526026815260200180615f3a6026913960400191505060405180910390fd5b600080546040516001600160a01b03808516939216917f8be0079c531659141344cd1fd0a4f28419497f9722a3daafe3b4186f6b6457e091a3600080546001600160a01b0319166001600160a01b0392909216919091179055565b6040805163d505accf60e01b8152336004820152306024820152604481018790526064810186905260ff8516608482015260a4810184905260c4810183905290516001600160a01b0388169163d505accf9160e480830192600092919082900301818387803b15801561117657600080fd5b60006001600160a01b03841660011415612ae857339350612afe565b6001600160a01b03841660021415612afe573093505b6000806000612b108560000151613099565b9250925092506000826001600160a01b0316846001600160a01b031610905060008073__$708233afd6c8f5dd23d33a215fb048c749$__634e6c8ed87f00000000000000000000000000000000000000000000000000000000000000008888886040518563ffffffff1660e01b8152600401612b8f9493929190615a8c565b60206040518083038186803b158015612ba757600080fd5b505af4158015612bbb573d6000803e3d6000fd5b505050506040513d601f19601f82011682018060405250810190612bdf9190614e5c565b6001600160a01b031663128acb088b85612bf88f6140af565b6001600160a01b038e1615612c0d578d612c33565b87612c2c5773fffd8963efd1fc6a506488495d951d5263988d25612c33565b6401000276a45b8d604051602001612c449190615d5f565b6040516020818303038152906040526040518663ffffffff1660e01b8152600401612c73959493929190615b55565b6040805180830381600087803b158015612c8c57600080fd5b505af1158015612ca0573d6000803e3d6000fd5b505050506040513d601f19601f82011682018060405250810190612cc49190615387565b9150915082612cd35781612cd5565b805b6000039b9a5050505050505050505050565b60006001600160a01b03841660011415612d0357339350612d19565b6001600160a01b03841660021415612d19573093505b6000806000612d2b8560000151613099565b9250925092506000836001600160a01b0316836001600160a01b031610905060008073__$708233afd6c8f5dd23d33a215fb048c749$__634e6c8ed87f00000000000000000000000000000000000000000000000000000000000000008789886040518563ffffffff1660e01b8152600401612daa9493929190615a8c565b60206040518083038186803b158015612dc257600080fd5b505af4158015612dd6573d6000803e3d6000fd5b505050506040513d601f19601f82011682018060405250810190612dfa9190614e5c565b6001600160a01b031663128acb088b85612e138f6140af565b6000036001600160a01b038e1615612e2b578d612e51565b87612e4a5773fffd8963efd1fc6a506488495d951d5263988d25612e51565b6401000276a45b8d604051602001612e629190615d5f565b6040516020818303038152906040526040518663ffffffff1660e01b8152600401612e91959493929190615b55565b6040805180830381600087803b158015612eaa57600080fd5b505af1158015612ebe573d6000803e3d6000fd5b505050506040513d601f19601f82011682018060405250810190612ee29190615387565b91509150600083612ef7578183600003612efd565b82826000035b90985090506001600160a01b038a16612f1c578b8114612f1c57600080fd5b50505050505050949350505050565b6040516370a0823160e01b81526000906001600160a01b038316906370a0823190612f5a903090600401615a3b565b60206040518083038186803b158015612f7257600080fd5b505afa158015612f86573d6000803e3d6000fd5b505050506040513d601f19601f82011682018060405250810190610ac891906157bf565b604080516000808252602082019092526001600160a01b0384169083906040518082805190602001908083835b60208310612ff65780518252601f199092019160209182019101612fd7565b6001836020036101000a03801982511681845116808217855250505050505090500191505060006040518083038185875af1925050503d8060008114613058576040519150601f19603f3d011682016040523d82523d6000602084013e61305d565b606091505b505090508061169b576040805162461bcd60e51b815260206004820152600360248201526253544560e81b604482015290519081900360640190fd5b600080806130a784826140c5565b92506130b4846014614175565b90506130c18460176140c5565b91509193909250565b7f00000000000000000000000000000000000000000000000000000000000000006001600160a01b0316846001600160a01b031614801561310b5750804710155b1561322d577f00000000000000000000000000000000000000000000000000000000000000006001600160a01b031663d0e30db0826040518263ffffffff1660e01b81526004016000604051808303818588803b15801561316b57600080fd5b505af115801561317f573d6000803e3d6000fd5b50505050507f00000000000000000000000000000000000000000000000000000000000000006001600160a01b031663a9059cbb83836040518363ffffffff1660e01b815260040180836001600160a01b0316815260200182815260200192505050602060405180830381600087803b1580156131fb57600080fd5b505af115801561320f573d6000803e3d6000fd5b505050506040513d602081101561322557600080fd5b50610e5e9050565b6001600160a01b03831630141561324e57613249848383613a4b565b610e5e565b610e5e84848484613f5f565b516042111590565b8051606090610ac89083906017906016190161421c565b3390565b60005b600183510381101561169b5760008084838151811061329b57fe5b60200260200101518584600101815181106132b257fe5b602002602001015191509150600073__$708233afd6c8f5dd23d33a215fb048c749$__63544caa5684846040518363ffffffff1660e01b81526004016132f9929190615a4f565b604080518083038186803b15801561331057600080fd5b505af4158015613324573d6000803e3d6000fd5b505050506040513d601f19601f820116820180604052508101906133489190614eb0565b509050600073__$708233afd6c8f5dd23d33a215fb048c749$__636d91c0e27f000000000000000000000000000000000000000000000000000000000000000086866040518463ffffffff1660e01b81526004016133a893929190615a69565b60206040518083038186803b1580156133c057600080fd5b505af41580156133d4573d6000803e3d6000fd5b505050506040513d601f19601f820116820180604052508101906133f89190614e5c565b9050600080600080846001600160a01b0316630902f1ac6040518163ffffffff1660e01b815260040160606040518083038186803b15801561343957600080fd5b505afa15801561344d573d6000803e3d6000fd5b505050506040513d601f19601f8201168201806040525081019061347191906156c6565b506001600160701b031691506001600160701b03169150600080876001600160a01b03168a6001600160a01b0316146134ab5782846134ae565b83835b915091506134e2828b6001600160a01b03166370a082318a6040518263ffffffff1660e01b81526004016114af9190615a3b565b604051630153543560e21b815290965073__$708233afd6c8f5dd23d33a215fb048c749$__9063054d50d49061352090899086908690600401615de1565b60206040518083038186803b15801561353857600080fd5b505af415801561354c573d6000803e3d6000fd5b505050506040513d601f19601f8201168201806040525081019061357091906157bf565b945050505050600080856001600160a01b0316886001600160a01b03161461359a5782600061359e565b6000835b91509150600060028c51038a106135b5578a613676565b73__$708233afd6c8f5dd23d33a215fb048c749$__636d91c0e27f00000000000000000000000000000000000000000000000000000000000000008a8f8e6002018151811061360057fe5b60200260200101516040518463ffffffff1660e01b815260040161362693929190615a69565b60206040518083038186803b15801561363e57600080fd5b505af4158015613652573d6000803e3d6000fd5b505050506040513d601f19601f820116820180604052508101906136769190614e5c565b6040805160008152602081019182905263022c0d9f60e01b9091529091506001600160a01b0387169063022c0d9f906136b89086908690869060248101615db4565b600060405180830381600087803b1580156136d257600080fd5b505af11580156136e6573d6000803e3d6000fd5b50506001909b019a506132809950505050505050505050565b8082038281111561265b57600080fd5b6000806000846001600160a01b031663095ea7b360e01b7f000000000000000000000000000000000000000000000000000000000000000086604051602401613759929190615b9b565b60408051601f198184030181529181526020820180516001600160e01b03166001600160e01b03199094169390931790925290516137979190615a1f565b6000604051808303816000865af19150503d80600081146137d4576040519150601f19603f3d011682016040523d82523d6000602084013e6137d9565b606091505b5091509150818015610baa575080511580610baa575080806020019051810190610baa9190615282565b4290565b60008215806138225750508181028183828161381f57fe5b04145b61265b57600080fd5b805160018351031461383c57600080fd5b60005b815181101561169b5760008084838151811061385757fe5b602002602001015185846001018151811061386e57fe5b602002602001015191509150600080600073__$708233afd6c8f5dd23d33a215fb048c749$__63b735aecd600360009054906101000a90046001600160a01b031687878b8b815181106138bd57fe5b60200260200101516040518563ffffffff1660e01b81526004016138e49493929190615aba565b60606040518083038186803b1580156138fc57600080fd5b505af4158015613910573d6000803e3d6000fd5b505050506040513d601f19601f820116820180604052508101906139349190615866565b9250925092506000856001600160a01b03166370a08231306040518263ffffffff1660e01b81526004016139689190615a3b565b60206040518083038186803b15801561398057600080fd5b505afa158015613994573d6000803e3d6000fd5b505050506040513d601f19601f820116820180604052508101906139b891906157bf565b90506139c586838361436d565b604051630b68372160e31b81526001600160a01b03831690635b41b908906139f890879087908690600090600401615df7565b600060405180830381600087803b158015613a1257600080fd5b505af1158015613a26573d6000803e3d6000fd5b50506001909801975061383f9650505050505050565b6060610ac8826000602b61421c565b604080516001600160a01b038481166024830152604480830185905283518084039091018152606490920183526020820180516001600160e01b031663a9059cbb60e01b1781529251825160009485949389169392918291908083835b60208310613ac75780518252601f199092019160209182019101613aa8565b6001836020036101000a0380198251168184511680821785525050505050509050019150506000604051808303816000865af19150503d8060008114613b29576040519150601f19603f3d011682016040523d82523d6000602084013e613b2e565b606091505b5091509150818015613b5c575080511580613b5c5750808060200190516020811015613b5957600080fd5b50515b611b26576040805162461bcd60e51b815260206004820152600260248201526114d560f21b604482015290519081900360640190fd5b6000808351855114613ba357600080fd5b600085516001600160401b0381118015613bbc57600080fd5b50604051908082528060200260200182016040528015613bf657816020015b613be3614c8c565b815260200190600190039081613bdb5790505b509050600086516001600160401b0381118015613c1257600080fd5b50604051908082528060200260200182016040528015613c4c57816020015b613c39614c8c565b815260200190600190039081613c315790505b50905060005b8751811015613d6157600080613c7b8a8481518110613c6d57fe5b602002602001015189613d88565b91509150613c88826144b4565b858481518110613c9457fe5b60200260200101516000019060020b908160020b81525050613cb5816144b4565b848481518110613cc157fe5b60200260200101516000019060020b908160020b81525050888381518110613ce557fe5b6020026020010151858481518110613cf957fe5b6020026020010151602001906001600160801b031690816001600160801b031681525050888381518110613d2957fe5b6020026020010151848481518110613d3d57fe5b6020908102919091018101516001600160801b039092169101525050600101613c52565b50613d6b826144c5565b60020b9350613d79816144c5565b60020b92505050935093915050565b600080600080613d9786614581565b90506000805b82811015613f40576000806000613db38b613099565b9250925092506000613dc684848461458e565b905060008063ffffffff8d16613def57613ddf836145cc565b600291820b9350900b9050613e84565b613df9838e6147e3565b8160020b91505080925050826001600160a01b0316633850c7bd6040518163ffffffff1660e01b815260040160e06040518083038186803b158015613e3d57600080fd5b505afa158015613e51573d6000803e3d6000fd5b505050506040513d601f19601f82011682018060405250810190613e759190615701565b50505060029290920b93505050505b60018903871415613eab57846001600160a01b0316866001600160a01b0316109950613eba565b613eb48e613262565b9d508597505b6000871580613f0d5750866001600160a01b0316896001600160a01b031610613ef757866001600160a01b0316866001600160a01b031610613f0d565b856001600160a01b0316876001600160a01b0316105b90508015613f22579b82019b9a81019a613f2d565b828d039c50818c039b505b505060019095019450613d9d9350505050565b5082613f555760001985029450600019840293505b5050509250929050565b604080516001600160a01b0385811660248301528481166044830152606480830185905283518084039091018152608490920183526020820180516001600160e01b03166323b872dd60e01b178152925182516000948594938a169392918291908083835b60208310613fe35780518252601f199092019160209182019101613fc4565b6001836020036101000a0380198251168184511680821785525050505050509050019150506000604051808303816000865af19150503d8060008114614045576040519150601f19603f3d011682016040523d82523d6000602084013e61404a565b606091505b5091509150818015614078575080511580614078575080806020019051602081101561407557600080fd5b50515b610b51576040805162461bcd60e51b815260206004820152600360248201526229aa2360e91b604482015290519081900360640190fd5b6000600160ff1b82106140c157600080fd5b5090565b600081826014011015614114576040805162461bcd60e51b8152602060048201526012602482015271746f416464726573735f6f766572666c6f7760701b604482015290519081900360640190fd5b8160140183511015614165576040805162461bcd60e51b8152602060048201526015602482015274746f416464726573735f6f75744f66426f756e647360581b604482015290519081900360640190fd5b500160200151600160601b900490565b6000818260030110156141c3576040805162461bcd60e51b8152602060048201526011602482015270746f55696e7432345f6f766572666c6f7760781b604482015290519081900360640190fd5b8160030183511015614213576040805162461bcd60e51b8152602060048201526014602482015273746f55696e7432345f6f75744f66426f756e647360601b604482015290519081900360640190fd5b50016003015190565b60608182601f011015614267576040805162461bcd60e51b815260206004820152600e60248201526d736c6963655f6f766572666c6f7760901b604482015290519081900360640190fd5b8282840110156142af576040805162461bcd60e51b815260206004820152600e60248201526d736c6963655f6f766572666c6f7760901b604482015290519081900360640190fd5b818301845110156142fb576040805162461bcd60e51b8152602060048201526011602482015270736c6963655f6f75744f66426f756e647360781b604482015290519081900360640190fd5b60608215801561431a5760405191506000825260208201604052614364565b6040519150601f8416801560200281840101858101878315602002848b0101015b8183101561435357805183526020928301920161433b565b5050858452601f01601f1916604052505b50949350505050565b604080516001600160a01b038481166024830152604480830185905283518084039091018152606490920183526020820180516001600160e01b031663095ea7b360e01b1781529251825160009485949389169392918291908083835b602083106143e95780518252601f1990920191602091820191016143ca565b6001836020036101000a0380198251168184511680821785525050505050509050019150506000604051808303816000865af19150503d806000811461444b576040519150601f19603f3d011682016040523d82523d6000602084013e614450565b606091505b509150915081801561447e57508051158061447e575080806020019051602081101561447b57600080fd5b50515b611b26576040805162461bcd60e51b8152602060048201526002602482015261534160f01b604482015290519081900360640190fd5b80600281900b8114610acb57600080fd5b6000806000805b8451811015614548578481815181106144e157fe5b6020026020010151602001516001600160801b031685828151811061450257fe5b60200260200101516000015160020b028301925084818151811061452257fe5b6020026020010151602001516001600160801b03168201915080806001019150506144cc565b5080828161455257fe5b05925060008212801561456d575080828161456957fe5b0715155b1561457a57600019909201915b5050919050565b5160176013199091010490565b60006145c47f00000000000000000000000000000000000000000000000000000000000000006145bf868686614b52565b614ba8565b949350505050565b600080600080846001600160a01b0316633850c7bd6040518163ffffffff1660e01b815260040160e06040518083038186803b15801561460b57600080fd5b505afa15801561461f573d6000803e3d6000fd5b505050506040513d601f19601f820116820180604052508101906146439190615701565b50939750919550935050600161ffff8416119150614662905057600080fd5b600080866001600160a01b031663252c09d7856040518263ffffffff1660e01b81526004016146919190615d9c565b60806040518083038186803b1580156146a957600080fd5b505afa1580156146bd573d6000803e3d6000fd5b505050506040513d601f19601f820116820180604052508101906146e191906158ed565b5050915091506146ef613803565b63ffffffff168263ffffffff1614614709578495506147da565b60008361ffff1660018561ffff168761ffff1601038161472557fe5b06905060008060008a6001600160a01b031663252c09d7856040518263ffffffff1660e01b81526004016147599190615dab565b60806040518083038186803b15801561477157600080fd5b505afa158015614785573d6000803e3d6000fd5b505050506040513d601f19601f820116820180604052508101906147a991906158ed565b93505092509250806147ba57600080fd5b82860363ffffffff811683870360060b816147d157fe5b059a5050505050505b50505050915091565b60008063ffffffff8316614823576040805162461bcd60e51b8152602060048201526002602482015261042560f41b604482015290519081900360640190fd5b604080516002808252606082018352600092602083019080368337019050509050838160008151811061485257fe5b602002602001019063ffffffff16908163ffffffff168152505060008160018151811061487b57fe5b63ffffffff90921660209283029190910182015260405163883bdbfd60e01b81526004810182815283516024830152835160009384936001600160a01b038b169363883bdbfd9388939192839260449091019185820191028083838b5b838110156148f05781810151838201526020016148d8565b505050509050019250505060006040518083038186803b15801561491357600080fd5b505afa158015614927573d6000803e3d6000fd5b505050506040513d6000823e601f3d908101601f19168201604090815281101561495057600080fd5b810190808051604051939291908464010000000082111561497057600080fd5b90830190602082018581111561498557600080fd5b82518660208202830111640100000000821117156149a257600080fd5b82525081516020918201928201910280838360005b838110156149cf5781810151838201526020016149b7565b50505050905001604052602001805160405193929190846401000000008211156149f857600080fd5b908301906020820185811115614a0d57600080fd5b8251866020820283011164010000000082111715614a2a57600080fd5b82525081516020918201928201910280838360005b83811015614a57578181015183820152602001614a3f565b5050505090500160405250505091509150600082600081518110614a7757fe5b602002602001015183600181518110614a8c57fe5b6020026020010151039050600082600081518110614aa657fe5b602002602001015183600181518110614abb57fe5b60200260200101510390508763ffffffff168260060b81614ad857fe5b05965060008260060b128015614b0257508763ffffffff168260060b81614afb57fe5b0760060b15155b15614b0f57600019909601955b63ffffffff88166001600160a01b0302640100000000600160c01b03602083901b166001600160c01b03821681614b4257fe5b0496505050505050509250929050565b614b5a614ca3565b826001600160a01b0316846001600160a01b03161115614b78579192915b50604080516060810182526001600160a01b03948516815292909316602083015262ffffff169181019190915290565b600081602001516001600160a01b031682600001516001600160a01b031610614bd057600080fd5b50805160208083015160409384015184516001600160a01b0394851681850152939091168385015262ffffff166060808401919091528351808403820181526080840185528051908301206001600160f81b031960a085015294901b6bffffffffffffffffffffffff191660a183015260b58201939093527f70a4cd7a8f65b72fc65c654ff7cb7a957fde2e01887675075728e35d17fdb36d60d5808301919091528251808303909101815260f5909101909152805191012090565b604080518082019091526000808252602082015290565b604080516060810182526000808252602082018190529181019190915290565b8035610acb81615ee3565b60008083601f840112614cdf578182fd5b5081356001600160401b03811115614cf5578182fd5b6020830191508360208083028501011115614d0f57600080fd5b9250929050565b600082601f830112614d26578081fd5b81356020614d3b614d3683615e79565b615e56565b8281528181019085830183850287018401881015614d57578586fd5b855b85811015614d895781356001600160801b0381168114614d77578788fd5b84529284019290840190600101614d59565b5090979650505050505050565b80518015158114610acb57600080fd5b600082601f830112614db6578081fd5b8135614dc4614d3682615e96565b818152846020838601011115614dd8578283fd5b816020850160208301379081016020019190915292915050565b80516001600160701b0381168114610acb57600080fd5b805161ffff81168114610acb57600080fd5b803562ffffff81168114610acb57600080fd5b8035610acb81615f07565b600060208284031215614e4a578081fd5b8135614e5581615ee3565b9392505050565b600060208284031215614e6d578081fd5b8151614e5581615ee3565b60008060408385031215614e8a578081fd5b8235614e9581615ee3565b91506020830135614ea581615ee3565b809150509250929050565b60008060408385031215614ec2578182fd5b8251614ecd81615ee3565b6020840151909250614ea581615ee3565b60008060408385031215614ef0578182fd5b8235614efb81615ee3565b946020939093013593505050565b600080600060608486031215614f1d578081fd5b8335614f2881615ee3565b9250602084013591506040840135614f3f81615ee3565b809150509250925092565b600080600080600060a08688031215614f61578283fd5b8535614f6c81615ee3565b9450602086013593506040860135614f8381615ee3565b9250606086013591506080860135614f9a81615ee3565b809150509295509295909350565b60008060008060808587031215614fbd578182fd5b8435614fc881615ee3565b935060208501359250604085013591506060850135614fe681615ee3565b939692955090935050565b60008060008060008060c08789031215615009578384fd5b863561501481615ee3565b95506020870135945060408701359350606087013560ff81168114615037578182fd5b9598949750929560808101359460a0909101359350915050565b600080600080600080600060a0888a03121561506b578485fd5b87356001600160401b0380821115615081578687fd5b61508d8b838c01614cce565b909950975060208a01359150808211156150a5578687fd5b506150b28a828b01614cce565b909650945050604088013592506060880135915060808801356150d481615ee3565b8091505092959891949750929550565b600080602083850312156150f6578182fd5b82356001600160401b0381111561510b578283fd5b61511785828601614cce565b90969095509350505050565b60008060008060808587031215615138578182fd5b84356001600160401b038082111561514e578384fd5b818701915087601f830112615161578384fd5b81356020615171614d3683615e79565b82815281810190858301885b858110156151a6576151948e8684358b0101614da6565b8452928401929084019060010161517d565b509099505050880135925050808211156151be578384fd5b506151cb87828801614d16565b9350506151da60408601614e1b565b91506151e860608601614e2e565b905092959194509250565b60006020808385031215615205578182fd5b82516001600160401b0381111561521a578283fd5b8301601f8101851361522a578283fd5b8051615238614d3682615e79565b8181528381019083850185840285018601891015615254578687fd5b8694505b83851015615276578051835260019490940193918501918501615258565b50979650505050505050565b600060208284031215615293578081fd5b614e5582614d96565b6000806000604084860312156152b0578081fd5b8335925060208401356001600160401b038111156152cc578182fd5b6152d886828701614cce565b9497909650939450505050565b6000602082840312156152f6578081fd5b81356001600160401b0381111561530b578182fd5b6145c484828501614da6565b60008060006060848603121561532b578081fd5b83356001600160401b03811115615340578182fd5b61534c86828701614da6565b93505061535b60208501614e1b565b91506040840135614f3f81615f07565b60006020828403121561537c578081fd5b8135614e5581615ef8565b60008060408385031215615399578182fd5b505080516020909101519092909150565b600080600080606085870312156153bf578182fd5b843593506020850135925060408501356001600160401b03808211156153e3578384fd5b818701915087601f8301126153f6578384fd5b813581811115615404578485fd5b886020828501011115615415578485fd5b95989497505060200194505050565b600060208284031215615435578081fd5b81516001600160401b0381111561544a578182fd5b8201601f8101841361545a578182fd5b8051615468614d3682615e96565b81815285602083850101111561547c578384fd5b610baa826020830160208601615eb7565b60006020828403121561549e578081fd5b81356001600160401b03808211156154b4578283fd5b90830190608082860312156154c7578283fd5b6040516080810181811083821117156154dc57fe5b6040528235828111156154ed578485fd5b6154f987828601614da6565b8252506020830135915061550c82615ee3565b816020820152604083013560408201526060830135606082015280935050505092915050565b600060e08284031215615543578081fd5b60405160e081018181106001600160401b038211171561555f57fe5b60405261556b83614cc3565b815261557960208401614cc3565b602082015261558a60408401614e1b565b604082015261559b60608401614cc3565b60608201526080830135608082015260a083013560a08201526155c060c08401614cc3565b60c08201529392505050565b6000602082840312156155dd578081fd5b81356001600160401b038111156155f2578182fd5b820160808185031215614e55578182fd5b600060e08284031215611dd7578081fd5b600060a08284031215611dd7578081fd5b60006101008284031215611dd7578081fd5b600060208284031215615648578081fd5b81356001600160401b038082111561565e578283fd5b9083019060408286031215615671578283fd5b60405160408101818110838211171561568657fe5b604052823582811115615697578485fd5b6156a387828601614da6565b825250602083013592506156b683615ee3565b6020810192909252509392505050565b6000806000606084860312156156da578081fd5b6156e384614df2565b92506156f160208501614df2565b91506040840151614f3f81615f07565b600080600080600080600060e0888a03121561571b578081fd5b875161572681615ee3565b602089015190975061573781615ef8565b955061574560408901614e09565b945061575360608901614e09565b935061576160808901614e09565b925060a088015161577181615f07565b915061577f60c08901614d96565b905092959891949750929550565b60006020828403121561579e578081fd5b614e5582614e1b565b6000602082840312156157b8578081fd5b5035919050565b6000602082840312156157d0578081fd5b5051919050565b600080604083850312156157e9578182fd5b823591506020830135614ea581615ee3565b60008060008060808587031215615810578182fd5b84359350602085013561582281615ee3565b9250604085013591506060850135614fe681615ee3565b60008060006060848603121561584d578081fd5b83359250602084013591506040840135614f3f81615ee3565b60008060006060848603121561587a578081fd5b83519250602084015191506040840151614f3f81615ee3565b6000806000806000608086880312156158aa578283fd5b853594506020860135935060408601356001600160401b038111156158cd578384fd5b6158d988828901614cce565b9094509250506060860135614f9a81615ee3565b60008060008060808587031215615902578182fd5b845161590d81615f07565b8094505060208501518060060b8114615924578283fd5b604086015190935061593581615ee3565b91506151e860608601614d96565b6001600160a01b03169052565b60008284526020808501945082825b8581101561598d57813561597281615ee3565b6001600160a01b03168752958201959082019060010161595f565b509495945050505050565b600081518084526159b0816020860160208601615eb7565b601f01601f19169290920160200192915050565b60020b9052565b62ffffff169052565b606093841b6bffffffffffffffffffffffff19908116825260e89390931b6001600160e81b0319166014820152921b166017820152602b0190565b6000828483379101908152919050565b60008251615a31818460208701615eb7565b9190910192915050565b6001600160a01b0391909116815260200190565b6001600160a01b0392831681529116602082015260400190565b6001600160a01b0393841681529183166020830152909116604082015260600190565b6001600160a01b03948516815292841660208401529216604082015262ffffff909116606082015260800190565b6001600160a01b039485168152928416602084015292166040820152606081019190915260800190565b6001600160a01b0388811682528716602082015260a060408201819052600090615b119083018789615950565b82810360608401528481526001600160fb1b03851115615b2f578182fd5b602085028087602084013701602001908152608091909101919091529695505050505050565b6001600160a01b0386811682528515156020830152604082018590528316606082015260a060808201819052600090615b9090830184615998565b979650505050505050565b6001600160a01b03929092168252602082015260400190565b600060018060a01b038616825284602083015260606040830152615bdc606083018486615950565b9695505050505050565b6000602080830181845280855180835260408601915060408482028701019250838701855b82811015615c3957603f19888603018452615c27858351615998565b94509285019290850190600101615c0b565b5092979650505050505050565b600060208252614e556020830184615998565b6020810160058310615c6757fe5b91905290565b600060c082019050825182526020830151602083015260408301516040830152606083015160608301526080830151608083015260a083015160a083015292915050565b600061016082019050615cc5828451615943565b6020830151615cd76020840182615943565b506040830151615cea60408401826159cb565b506060830151615cfd60608401826159c4565b506080830151615d1060808401826159c4565b5060a083015160a083015260c083015160c083015260e083015160e083015261010080840151818401525061012080840151615d4e82850182615943565b505061014092830151919092015290565b600060208252825160406020840152615d7b6060840182615998565b602094909401516001600160a01b0316604093909301929092525090919050565b61ffff91909116815260200190565b90815260200190565b600085825284602083015260018060a01b038416604083015260806060830152615bdc6080830184615998565b9283526020830191909152604082015260600190565b93845260208401929092526040830152606082015260800190565b6000808335601e19843603018112615e28578283fd5b8301803591506001600160401b03821115615e41578283fd5b602001915036819003821315614d0f57600080fd5b6040518181016001600160401b0381118282101715615e7157fe5b604052919050565b60006001600160401b03821115615e8c57fe5b5060209081020190565b60006001600160401b03821115615ea957fe5b50601f01601f191660200190565b60005b83811015615ed2578181015183820152602001615eba565b83811115610e5e5750506000910152565b6001600160a01b03811681146117d357600080fd5b8060020b81146117d357600080fd5b63ffffffff811681146117d357600080fdfe5265656e7472616e637947756172643a207265656e7472616e742063616c6c004f776e61626c653a206e6577206f776e657220697320746865207a65726f2061646472657373a26469706673582212202356ae13357714478eb2ad9d655b0aaa06bd7c031b85b937c1263ba9071e890f64736f6c63430007060033","linkReferences":{"src/router/contracts/libraries/SmartRouterHelper.sol":{"SmartRouterHelper":[{"start":3686,"length":20},{"start":4437,"length":20},{"start":4641,"length":20},{"start":5425,"length":20},{"start":9019,"length":20},{"start":11685,"length":20},{"start":12224,"length":20},{"start":13619,"length":20},{"start":13760,"length":20},{"start":14181,"length":20},{"start":14376,"length":20},{"start":15090,"length":20}]}}},"methodIdentifiers":{"WETH9()":"4aa4a4fc","approveMax(address)":"571ac8b0","approveMaxMinusOne(address)":"cab372ce","approveZeroThenMax(address)":"639d71a9","approveZeroThenMaxMinusOne(address)":"ab3fdd50","callPositionManager(bytes)":"b3a2af13","checkOracleSlippage(bytes,uint24,uint32)":"f25801a7","checkOracleSlippage(bytes[],uint128[],uint24,uint32)":"efdeed8e","deployer()":"d5f39488","exactInput((bytes,address,uint256,uint256))":"b858183f","exactInputSingle((address,address,uint24,address,uint256,uint256,uint160))":"04e45aaf","exactInputStableSwap(address[],uint256[],uint256,uint256,address)":"b4554231","exactOutput((bytes,address,uint256,uint256))":"09b81346","exactOutputSingle((address,address,uint24,address,uint256,uint256,uint160))":"5023b4df","exactOutputStableSwap(address[],uint256[],uint256,uint256,address)":"b4c4e555","factory()":"c45a0155","factoryV2()":"68e0d4e1","getApprovalType(address,uint256)":"dee00f35","increaseLiquidity((address,address,uint256,uint256,uint256))":"f100b205","mint((address,address,uint24,int24,int24,uint256,uint256,address))":"11ed56c9","multicall(bytes32,bytes[])":"1f0464d1","multicall(bytes[])":"ac9650d8","multicall(uint256,bytes[])":"5ae401dc","owner()":"8da5cb5b","pancakeV3SwapCallback(int256,int256,bytes)":"23a69e75","positionManager()":"791b98bc","pull(address,uint256)":"f2d5d56b","refundETH()":"12210e8a","renounceOwnership()":"715018a6","selfPermit(address,uint256,uint256,uint8,bytes32,bytes32)":"f3995c67","selfPermitAllowed(address,uint256,uint256,uint8,bytes32,bytes32)":"4659a494","selfPermitAllowedIfNecessary(address,uint256,uint256,uint8,bytes32,bytes32)":"a4a78f0c","selfPermitIfNecessary(address,uint256,uint256,uint8,bytes32,bytes32)":"c2e3140a","setStableSwap(address,address)":"24dec034","stableSwapFactory()":"57c79961","stableSwapInfo()":"b85aa7af","swapExactTokensForTokens(uint256,uint256,address[],address)":"472b43f3","swapTokensForExactTokens(uint256,uint256,address[],address)":"42712a67","sweepToken(address,uint256)":"e90a182f","sweepToken(address,uint256,address)":"df2ab5bb","sweepTokenWithFee(address,uint256,address,uint256,address)":"e0e189a0","sweepTokenWithFee(address,uint256,uint256,address)":"3068c554","transferOwnership(address)":"f2fde38b","unwrapWETH9(uint256,address)":"49404b7c","unwrapWETH9WithFee(uint256,address,uint256,address)":"9b2c0a37","unwrapWETH9WithFee(uint256,uint256,address)":"d4ef38de","wrapETH(uint256)":"1c58db4f"},"id":44}