{"abi":[{"type":"constructor","inputs":[{"name":"_deployer","type":"address","internalType":"address"},{"name":"_factory","type":"address","internalType":"address"},{"name":"_factoryV2","type":"address","internalType":"address"},{"name":"_factoryStable","type":"address","internalType":"address"},{"name":"_WETH9","type":"address","internalType":"address"}],"stateMutability":"nonpayable"},{"type":"function","name":"WETH9","inputs":[],"outputs":[{"name":"","type":"address","internalType":"address"}],"stateMutability":"view"},{"type":"function","name":"deployer","inputs":[],"outputs":[{"name":"","type":"address","internalType":"address"}],"stateMutability":"view"},{"type":"function","name":"factory","inputs":[],"outputs":[{"name":"","type":"address","internalType":"address"}],"stateMutability":"view"},{"type":"function","name":"factoryStable","inputs":[],"outputs":[{"name":"","type":"address","internalType":"address"}],"stateMutability":"view"},{"type":"function","name":"factoryV2","inputs":[],"outputs":[{"name":"","type":"address","internalType":"address"}],"stateMutability":"view"},{"type":"function","name":"pancakeV3SwapCallback","inputs":[{"name":"amount0Delta","type":"int256","internalType":"int256"},{"name":"amount1Delta","type":"int256","internalType":"int256"},{"name":"path","type":"bytes","internalType":"bytes"}],"outputs":[],"stateMutability":"view"},{"type":"function","name":"quoteExactInput","inputs":[{"name":"path","type":"bytes","internalType":"bytes"},{"name":"flag","type":"uint256[]","internalType":"uint256[]"},{"name":"amountIn","type":"uint256","internalType":"uint256"}],"outputs":[{"name":"amountOut","type":"uint256","internalType":"uint256"},{"name":"v3SqrtPriceX96AfterList","type":"uint160[]","internalType":"uint160[]"},{"name":"v3InitializedTicksCrossedList","type":"uint32[]","internalType":"uint32[]"},{"name":"v3SwapGasEstimate","type":"uint256","internalType":"uint256"}],"stateMutability":"nonpayable"},{"type":"function","name":"quoteExactInputSingleStable","inputs":[{"name":"params","type":"tuple","internalType":"struct IMixedRouteQuoterV1.QuoteExactInputSingleStableParams","components":[{"name":"tokenIn","type":"address","internalType":"address"},{"name":"tokenOut","type":"address","internalType":"address"},{"name":"amountIn","type":"uint256","internalType":"uint256"},{"name":"flag","type":"uint256","internalType":"uint256"}]}],"outputs":[{"name":"amountOut","type":"uint256","internalType":"uint256"}],"stateMutability":"view"},{"type":"function","name":"quoteExactInputSingleV2","inputs":[{"name":"params","type":"tuple","internalType":"struct IMixedRouteQuoterV1.QuoteExactInputSingleV2Params","components":[{"name":"tokenIn","type":"address","internalType":"address"},{"name":"tokenOut","type":"address","internalType":"address"},{"name":"amountIn","type":"uint256","internalType":"uint256"}]}],"outputs":[{"name":"amountOut","type":"uint256","internalType":"uint256"}],"stateMutability":"view"},{"type":"function","name":"quoteExactInputSingleV3","inputs":[{"name":"params","type":"tuple","internalType":"struct IMixedRouteQuoterV1.QuoteExactInputSingleV3Params","components":[{"name":"tokenIn","type":"address","internalType":"address"},{"name":"tokenOut","type":"address","internalType":"address"},{"name":"amountIn","type":"uint256","internalType":"uint256"},{"name":"fee","type":"uint24","internalType":"uint24"},{"name":"sqrtPriceLimitX96","type":"uint160","internalType":"uint160"}]}],"outputs":[{"name":"amountOut","type":"uint256","internalType":"uint256"},{"name":"sqrtPriceX96After","type":"uint160","internalType":"uint160"},{"name":"initializedTicksCrossed","type":"uint32","internalType":"uint32"},{"name":"gasEstimate","type":"uint256","internalType":"uint256"}],"stateMutability":"nonpayable"}],"bytecode":{"object":"0x6101206040523480156200001257600080fd5b5060405162001f8a38038062001f8a83398101604081905262000035916200008a565b6001600160601b0319606095861b811660805293851b841660a052841b831660c05290831b821660e05290911b1661010052620000f9565b80516001600160a01b03811681146200008557600080fd5b919050565b600080600080600060a08688031215620000a2578081fd5b620000ad866200006d565b9450620000bd602087016200006d565b9350620000cd604087016200006d565b9250620000dd606087016200006d565b9150620000ed608087016200006d565b90509295509295909350565b60805160601c60a05160601c60c05160601c60e05160601c6101005160601c611e2962000161600039806106be528061072452508061069a528061086c5250806103fe525080610bb65250806101b752806102ae52806109d65280610bda5250611e296000f3fe608060405234801561001057600080fd5b506004361061009e5760003560e01c806388cf84661161006657806388cf8466146101095780638a49928614610129578063b174a0a71461013c578063c45a01551461015f578063d5f39488146101675761009e565b806323a69e75146100a35780634aa4a4fc146100b8578063558b66fb146100d657806368e0d4e1146100f95780637966a06614610101575b600080fd5b6100b66100b1366004611795565b61016f565b005b6100c06103fc565b6040516100cd9190611b3a565b60405180910390f35b6100e96100e4366004611683565b610420565b6040516100cd9493929190611c8a565b6100c0610698565b6100c06106bc565b61011c61011736600461184d565b6106e0565b6040516100cd9190611c81565b61011c6101373660046118bb565b61082f565b61014f61014a36600461191f565b610980565b6040516100cd9493929190611d25565b6100c0610bb4565b6100c0610bd8565b600083138061017e5750600082135b61018757600080fd5b600080600061019584610bfc565b92509250925073__$708233afd6c8f5dd23d33a215fb048c749$__638bdb19257f00000000000000000000000000000000000000000000000000000000000000008585856040518563ffffffff1660e01b81526004016101f89493929190611b71565b60206040518083038186803b15801561021057600080fd5b505af4158015610224573d6000803e3d6000fd5b505050506040513d601f19601f82011682018060405250810190610248919061174f565b506000806000881361027257846001600160a01b0316846001600160a01b0316108860000361028c565b836001600160a01b0316856001600160a01b031610876000035b91509150600073__$708233afd6c8f5dd23d33a215fb048c749$__634e6c8ed87f00000000000000000000000000000000000000000000000000000000000000008888886040518563ffffffff1660e01b81526004016102ef9493929190611b71565b60206040518083038186803b15801561030757600080fd5b505af415801561031b573d6000803e3d6000fd5b505050506040513d601f19601f8201168201806040525081019061033f919061174f565b9050600080826001600160a01b0316633850c7bd6040518163ffffffff1660e01b815260040160e06040518083038186803b15801561037d57600080fd5b505afa158015610391573d6000803e3d6000fd5b505050506040513d601f19601f820116820180604052508101906103b591906119ac565b50505050509150915084156103db57604051848152826020820152816040820152606081fd5b60405162461bcd60e51b81526004016103f390611c4c565b60405180910390fd5b7f000000000000000000000000000000000000000000000000000000000000000081565b6000606080600061043087610c2d565b67ffffffffffffffff8111801561044657600080fd5b50604051908082528060200260200182016040528015610470578160200160208202803683370190505b50925061047c87610c2d565b67ffffffffffffffff8111801561049257600080fd5b506040519080825280602002602001820160405280156104bc578160200160208202803683370190505b50915060005b60008060006104d08b610bfc565b9250925092508984815181106104e257fe5b60200260200101516001141561052e576105276040518060600160405280856001600160a01b03168152602001846001600160a01b031681526020018b81525061082f565b9850610657565b89848151811061053a57fe5b602002602001015160001415610606576000806000806105a06040518060a00160405280896001600160a01b03168152602001886001600160a01b031681526020018f81526020018762ffffff16815260200160006001600160a01b0316815250610980565b9350935093509350828b89815181106105b557fe5b60200260200101906001600160a01b031690816001600160a01b031681525050818a89815181106105e257fe5b63ffffffff90921660209283029190910190910152929b5050509490940193610657565b6106546040518060800160405280856001600160a01b03168152602001846001600160a01b031681526020018b81526020018c878151811061064457fe5b60200260200101518152506106e0565b98505b6001909301926106668b610c3e565b1561067b576106748b610c46565b9a50610687565b8897505050505061068f565b5050506104c2565b93509350935093565b7f000000000000000000000000000000000000000000000000000000000000000081565b7f000000000000000000000000000000000000000000000000000000000000000081565b80516020820151606083015160405163b735aecd60e01b815260009384938493849373__$708233afd6c8f5dd23d33a215fb048c749$__9363b735aecd9361074c937f000000000000000000000000000000000000000000000000000000000000000093600401611b9f565b60606040518083038186803b15801561076457600080fd5b505af4158015610778573d6000803e3d6000fd5b505050506040513d601f19601f8201168201806040525081019061079c9190611a9b565b925092509250806001600160a01b031663556d6e9f848488604001516040518463ffffffff1660e01b81526004016107d693929190611d4f565b60206040518083038186803b1580156107ee57600080fd5b505afa158015610802573d6000803e3d6000fd5b505050506040513d601f19601f820116820180604052508101906108269190611a46565b95945050505050565b80516020820151604051633274946160e01b81526000928392839273__$708233afd6c8f5dd23d33a215fb048c749$__92633274946192610896927f0000000000000000000000000000000000000000000000000000000000000000929190600401611b4e565b604080518083038186803b1580156108ad57600080fd5b505af41580156108c1573d6000803e3d6000fd5b505050506040513d601f19601f820116820180604052508101906108e59190611772565b9150915073__$708233afd6c8f5dd23d33a215fb048c749$__63054d50d4856040015184846040518463ffffffff1660e01b815260040161092893929190611d4f565b60206040518083038186803b15801561094057600080fd5b505af4158015610954573d6000803e3d6000fd5b505050506040513d601f19601f820116820180604052508101906109789190611a46565b949350505050565b6020810151815160608301516040516309cd91db60e31b81526000938493849384936001600160a01b038085169084161093859373__$708233afd6c8f5dd23d33a215fb048c749$__93634e6c8ed893610a01937f000000000000000000000000000000000000000000000000000000000000000093929091600401611b71565b60206040518083038186803b158015610a1957600080fd5b505af4158015610a2d573d6000803e3d6000fd5b505050506040513d601f19601f82011682018060405250810190610a51919061174f565b905060005a9050816001600160a01b031663128acb083085610a768c60400151610c63565b60808d01516001600160a01b031615610a93578c60800151610ab9565b87610ab25773fffd8963efd1fc6a506488495d951d5263988d25610ab9565b6401000276a45b8d600001518e606001518f60200151604051602001610ada93929190611aff565b6040516020818303038152906040526040518663ffffffff1660e01b8152600401610b09959493929190611bc9565b6040805180830381600087803b158015610b2257600080fd5b505af1925050508015610b52575060408051601f3d908101601f19168201909252610b4f91810190611772565b60015b610ba7573d808015610b80576040519150601f19603f3d011682016040523d82523d6000602084013e610b85565b606091505b505a82039450610b96818487610c79565b975097509750975050505050610bad565b50505050505b9193509193565b7f000000000000000000000000000000000000000000000000000000000000000081565b7f000000000000000000000000000000000000000000000000000000000000000081565b60008080610c0a8482610d33565b9250610c17846014610de3565b9050610c24846017610d33565b91509193909250565b80516017601319909101045b919050565b516042111590565b8051606090610c5d90839060179060161901610e8a565b92915050565b6000600160ff1b8210610c7557600080fd5b5090565b600080600080600080876001600160a01b0316633850c7bd6040518163ffffffff1660e01b815260040160e06040518083038186803b158015610cbb57600080fd5b505afa158015610ccf573d6000803e3d6000fd5b505050506040513d601f19601f82011682018060405250810190610cf391906119ac565b50939650610d0894508d9350610fdb92505050565b91975095509050610d236001600160a01b038916838361105f565b9350869250505093509350935093565b600081826014011015610d82576040805162461bcd60e51b8152602060048201526012602482015271746f416464726573735f6f766572666c6f7760701b604482015290519081900360640190fd5b8160140183511015610dd3576040805162461bcd60e51b8152602060048201526015602482015274746f416464726573735f6f75744f66426f756e647360581b604482015290519081900360640190fd5b500160200151600160601b900490565b600081826003011015610e31576040805162461bcd60e51b8152602060048201526011602482015270746f55696e7432345f6f766572666c6f7760781b604482015290519081900360640190fd5b8160030183511015610e81576040805162461bcd60e51b8152602060048201526014602482015273746f55696e7432345f6f75744f66426f756e647360601b604482015290519081900360640190fd5b50016003015190565b60608182601f011015610ed5576040805162461bcd60e51b815260206004820152600e60248201526d736c6963655f6f766572666c6f7760901b604482015290519081900360640190fd5b828284011015610f1d576040805162461bcd60e51b815260206004820152600e60248201526d736c6963655f6f766572666c6f7760901b604482015290519081900360640190fd5b81830184511015610f69576040805162461bcd60e51b8152602060048201526011602482015270736c6963655f6f75744f66426f756e647360781b604482015290519081900360640190fd5b606082158015610f885760405191506000825260208201604052610fd2565b6040519150601f8416801560200281840101858101878315602002848b0101015b81831015610fc1578051835260209283019201610fa9565b5050858452601f01601f1916604052505b50949350505050565b6000806000835160601461103e5760448451101561100b5760405162461bcd60e51b81526004016103f390611c22565b6004840193508380602001905181019061102591906117e3565b60405162461bcd60e51b81526004016103f39190611c0f565b838060200190518101906110529190611a5e565b9250925092509193909250565b60008060008060008060008060088b6001600160a01b031663d0c93a7c6040518163ffffffff1660e01b815260040160206040518083038186803b1580156110a657600080fd5b505afa1580156110ba573d6000803e3d6000fd5b505050506040513d60208110156110d057600080fd5b5051600290810b908c900b816110e257fe5b0560020b901d905060006101008c6001600160a01b031663d0c93a7c6040518163ffffffff1660e01b815260040160206040518083038186803b15801561112857600080fd5b505afa15801561113c573d6000803e3d6000fd5b505050506040513d602081101561115257600080fd5b5051600290810b908d900b8161116457fe5b0560020b8161116f57fe5b079050600060088d6001600160a01b031663d0c93a7c6040518163ffffffff1660e01b815260040160206040518083038186803b1580156111af57600080fd5b505afa1580156111c3573d6000803e3d6000fd5b505050506040513d60208110156111d957600080fd5b5051600290810b908d900b816111eb57fe5b0560020b901d905060006101008e6001600160a01b031663d0c93a7c6040518163ffffffff1660e01b815260040160206040518083038186803b15801561123157600080fd5b505afa158015611245573d6000803e3d6000fd5b505050506040513d602081101561125b57600080fd5b5051600290810b908e900b8161126d57fe5b0560020b8161127857fe5b07905060008160ff166001901b8f6001600160a01b0316635339c296856040518263ffffffff1660e01b8152600401808260010b815260200191505060206040518083038186803b1580156112cc57600080fd5b505afa1580156112e0573d6000803e3d6000fd5b505050506040513d60208110156112f657600080fd5b50511611801561137c57508d6001600160a01b031663d0c93a7c6040518163ffffffff1660e01b815260040160206040518083038186803b15801561133a57600080fd5b505afa15801561134e573d6000803e3d6000fd5b505050506040513d602081101561136457600080fd5b5051600290810b908d900b8161137657fe5b0760020b155b801561138d57508b60020b8d60020b135b945060008360ff166001901b8f6001600160a01b0316635339c296876040518263ffffffff1660e01b8152600401808260010b815260200191505060206040518083038186803b1580156113e057600080fd5b505afa1580156113f4573d6000803e3d6000fd5b505050506040513d602081101561140a57600080fd5b50511611801561149057508d6001600160a01b031663d0c93a7c6040518163ffffffff1660e01b815260040160206040518083038186803b15801561144e57600080fd5b505afa158015611462573d6000803e3d6000fd5b505050506040513d602081101561147857600080fd5b5051600290810b908e900b8161148a57fe5b0760020b155b80156114a157508b60020b8d60020b125b95508160010b8460010b12806114cd57508160010b8460010b1480156114cd57508060ff168360ff1611155b156114e3578399508297508198508096506114f0565b8199508097508398508296505b505060001960ff87161b9150505b8560010b8760010b136115c0578560010b8760010b14156115255760001960ff858103161c165b6000818c6001600160a01b0316635339c2968a6040518263ffffffff1660e01b8152600401808260010b815260200191505060206040518083038186803b15801561156f57600080fd5b505afa158015611583573d6000803e3d6000fd5b505050506040513d602081101561159957600080fd5b50511690506115a7816115e8565b61ffff16989098019750506001909501946000196114fe565b81156115cd576001880397505b82156115da576001880397505b505050505050509392505050565b6000805b8215610c5d576000198301909216916001016115ec565b600082601f830112611613578081fd5b813561162661162182611d89565b611d65565b81815284602083860101111561163a578283fd5b816020850160208301379081016020019190915292915050565b8051600281900b8114610c3957600080fd5b8035610c3981611ddb565b805161ffff81168114610c3957600080fd5b600080600060608486031215611697578283fd5b833567ffffffffffffffff808211156116ae578485fd5b6116ba87838801611603565b94506020915081860135818111156116d0578485fd5b8601601f810188136116e0578485fd5b8035828111156116ec57fe5b83810292506116fc848401611d65565b8181528481019083860185850187018c1015611716578889fd5b8895505b8386101561173857803583526001959095019491860191860161171a565b50979a979950505050604095909501359450505050565b600060208284031215611760578081fd5b815161176b81611ddb565b9392505050565b60008060408385031215611784578182fd5b505080516020909101519092909150565b6000806000606084860312156117a9578081fd5b8335925060208401359150604084013567ffffffffffffffff8111156117cd578182fd5b6117d986828701611603565b9150509250925092565b6000602082840312156117f4578081fd5b815167ffffffffffffffff81111561180a578182fd5b8201601f8101841361181a578182fd5b805161182861162182611d89565b81815285602083850101111561183c578384fd5b610826826020830160208601611dab565b60006080828403121561185e578081fd5b6040516080810181811067ffffffffffffffff8211171561187b57fe5b604052823561188981611ddb565b8152602083013561189981611ddb565b6020820152604083810135908201526060928301359281019290925250919050565b6000606082840312156118cc578081fd5b6040516060810181811067ffffffffffffffff821117156118e957fe5b60405282356118f781611ddb565b8152602083013561190781611ddb565b60208201526040928301359281019290925250919050565b600060a08284031215611930578081fd5b60405160a0810181811067ffffffffffffffff8211171561194d57fe5b604052823561195b81611ddb565b8152602083013561196b81611ddb565b602082015260408381013590820152606083013562ffffff8116811461198f578283fd5b60608201526119a060808401611666565b60808201529392505050565b600080600080600080600060e0888a0312156119c6578485fd5b87516119d181611ddb565b96506119df60208901611654565b95506119ed60408901611671565b94506119fb60608901611671565b9350611a0960808901611671565b925060a088015163ffffffff81168114611a21578283fd5b60c08901519092508015158114611a36578182fd5b8091505092959891949750929550565b600060208284031215611a57578081fd5b5051919050565b600080600060608486031215611a72578081fd5b835192506020840151611a8481611ddb565b9150611a9260408501611654565b90509250925092565b600080600060608486031215611aaf578081fd5b83519250602084015191506040840151611ac881611ddb565b809150509250925092565b60008151808452611aeb816020860160208601611dab565b601f01601f19169290920160200192915050565b606093841b6bffffffffffffffffffffffff19908116825260e89390931b6001600160e81b0319166014820152921b166017820152602b0190565b6001600160a01b0391909116815260200190565b6001600160a01b0393841681529183166020830152909116604082015260600190565b6001600160a01b03948516815292841660208401529216604082015262ffffff909116606082015260800190565b6001600160a01b039485168152928416602084015292166040820152606081019190915260800190565b6001600160a01b0386811682528515156020830152604082018590528316606082015260a060808201819052600090611c0490830184611ad3565b979650505050505050565b60006020825261176b6020830184611ad3565b60208082526010908201526f2ab732bc3832b1ba32b21032b93937b960811b604082015260600190565b6020808252818101527f4578616374206f75747075742071756f7465206e6f7420737570706f72746564604082015260600190565b90815260200190565b600060808201868352602060808185015281875180845260a0860191508289019350845b81811015611cd35784516001600160a01b031683529383019391830191600101611cae565b505084810360408601528651808252908201925081870190845b81811015611d0f57825163ffffffff1685529383019391830191600101611ced565b5050505060609290920192909252949350505050565b9384526001600160a01b0392909216602084015263ffffffff166040830152606082015260800190565b9283526020830191909152604082015260600190565b60405181810167ffffffffffffffff81118282101715611d8157fe5b604052919050565b600067ffffffffffffffff821115611d9d57fe5b50601f01601f191660200190565b60005b83811015611dc6578181015183820152602001611dae565b83811115611dd5576000848401525b50505050565b6001600160a01b0381168114611df057600080fd5b5056fea2646970667358221220a2162e3a3f5cb19e3a8391589f4a73696ca10af6ca4f48cf23d421bb258e3cbc64736f6c63430007060033","linkReferences":{"src/router/contracts/libraries/SmartRouterHelper.sol":{"SmartRouterHelper":[{"start":766,"length":20},{"start":1013,"length":20},{"start":2149,"length":20},{"start":2477,"length":20},{"start":2636,"length":20},{"start":2839,"length":20}]}}},"methodIdentifiers":{"WETH9()":"4aa4a4fc","deployer()":"d5f39488","factory()":"c45a0155","factoryStable()":"7966a066","factoryV2()":"68e0d4e1","pancakeV3SwapCallback(int256,int256,bytes)":"23a69e75","quoteExactInput(bytes,uint256[],uint256)":"558b66fb","quoteExactInputSingleStable((address,address,uint256,uint256))":"88cf8466","quoteExactInputSingleV2((address,address,uint256))":"8a499286","quoteExactInputSingleV3((address,address,uint256,uint24,uint160))":"b174a0a7"},"id":105}