{"abi":[{"type":"constructor","inputs":[{"name":"_deployer","type":"address","internalType":"address"},{"name":"_factory","type":"address","internalType":"address"},{"name":"_WETH9","type":"address","internalType":"address"}],"stateMutability":"nonpayable"},{"type":"function","name":"WETH9","inputs":[],"outputs":[{"name":"","type":"address","internalType":"address"}],"stateMutability":"view"},{"type":"function","name":"deployer","inputs":[],"outputs":[{"name":"","type":"address","internalType":"address"}],"stateMutability":"view"},{"type":"function","name":"factory","inputs":[],"outputs":[{"name":"","type":"address","internalType":"address"}],"stateMutability":"view"},{"type":"function","name":"pancakeV3SwapCallback","inputs":[{"name":"amount0Delta","type":"int256","internalType":"int256"},{"name":"amount1Delta","type":"int256","internalType":"int256"},{"name":"path","type":"bytes","internalType":"bytes"}],"outputs":[],"stateMutability":"view"},{"type":"function","name":"quoteExactInput","inputs":[{"name":"path","type":"bytes","internalType":"bytes"},{"name":"amountIn","type":"uint256","internalType":"uint256"}],"outputs":[{"name":"amountOut","type":"uint256","internalType":"uint256"}],"stateMutability":"nonpayable"},{"type":"function","name":"quoteExactInputSingle","inputs":[{"name":"tokenIn","type":"address","internalType":"address"},{"name":"tokenOut","type":"address","internalType":"address"},{"name":"fee","type":"uint24","internalType":"uint24"},{"name":"amountIn","type":"uint256","internalType":"uint256"},{"name":"sqrtPriceLimitX96","type":"uint160","internalType":"uint160"}],"outputs":[{"name":"amountOut","type":"uint256","internalType":"uint256"}],"stateMutability":"nonpayable"},{"type":"function","name":"quoteExactOutput","inputs":[{"name":"path","type":"bytes","internalType":"bytes"},{"name":"amountOut","type":"uint256","internalType":"uint256"}],"outputs":[{"name":"amountIn","type":"uint256","internalType":"uint256"}],"stateMutability":"nonpayable"},{"type":"function","name":"quoteExactOutputSingle","inputs":[{"name":"tokenIn","type":"address","internalType":"address"},{"name":"tokenOut","type":"address","internalType":"address"},{"name":"fee","type":"uint24","internalType":"uint24"},{"name":"amountOut","type":"uint256","internalType":"uint256"},{"name":"sqrtPriceLimitX96","type":"uint160","internalType":"uint160"}],"outputs":[{"name":"amountIn","type":"uint256","internalType":"uint256"}],"stateMutability":"nonpayable"}],"bytecode":{"object":"0x60e060405234801561001057600080fd5b5060405161102738038061102783398101604081905261002f91610072565b6001600160601b0319606093841b811660805291831b821660a05290911b1660c0526100b4565b80516001600160a01b038116811461006d57600080fd5b919050565b600080600060608486031215610086578283fd5b61008f84610056565b925061009d60208501610056565b91506100ab60408501610056565b90509250925092565b60805160601c60a05160601c60c05160601c610f2f6100f8600039806104fd5250806105215250806101715280610333528061059352806105f75250610f2f6000f3fe608060405234801561001057600080fd5b50600436106100885760003560e01c8063c45a01551161005b578063c45a0155146100f3578063cdca1753146100fb578063d5f394881461010e578063f7729d431461011657610088565b806323a69e751461008d5780632f80bb1d146100a257806330d07f21146100cb5780634aa4a4fc146100de575b600080fd5b6100a061009b366004610c66565b610129565b005b6100b56100b0366004610bdd565b610281565b6040516100c29190610e62565b60405180910390f35b6100b56100d9366004610b6f565b6102e6565b6100e66104fb565b6040516100c29190610d9d565b6100e661051f565b6100b5610109366004610bdd565b610543565b6100e6610591565b6100b5610124366004610b6f565b6105b5565b60008313806101385750600082135b61014157600080fd5b600080600061014f84610793565b92509250925073__$708233afd6c8f5dd23d33a215fb048c749$__638bdb19257f00000000000000000000000000000000000000000000000000000000000000008585856040518563ffffffff1660e01b81526004016101b29493929190610db1565b60206040518083038186803b1580156101ca57600080fd5b505af41580156101de573d6000803e3d6000fd5b505050506040513d601f19601f820116820180604052508101906102029190610c20565b50600080600080891361022e57856001600160a01b0316856001600160a01b031610888a600003610249565b846001600160a01b0316866001600160a01b03161089896000035b925092509250821561026057604051818152602081fd5b6000541561027657600054811461027657600080fd5b604051828152602081fd5b60005b600061028f846107c4565b9050600080600061029f87610793565b9250925092506102b38284838960006102e6565b955083156102cb576102c4876107cc565b96506102d7565b859450505050506102e0565b50505050610284565b92915050565b60006001600160a01b03808616878216109083166103045760008490555b6040516309cd91db60e31b815273__$708233afd6c8f5dd23d33a215fb048c749$__90634e6c8ed890610361907f0000000000000000000000000000000000000000000000000000000000000000908b908b908b90600401610db1565b60206040518083038186803b15801561037957600080fd5b505af415801561038d573d6000803e3d6000fd5b505050506040513d601f19601f820116820180604052508101906103b19190610c20565b6001600160a01b031663128acb0830836103ca886107e3565b6000036001600160a01b038816156103e25787610408565b856104015773fffd8963efd1fc6a506488495d951d5263988d25610408565b6401000276a45b8b8b8e60405160200161041d93929190610d62565b6040516020818303038152906040526040518663ffffffff1660e01b815260040161044c959493929190610ddf565b6040805180830381600087803b15801561046557600080fd5b505af1925050508015610495575060408051601f3d908101601f1916820190925261049291810190610c43565b60015b6104ee573d8080156104c3576040519150601f19603f3d011682016040523d82523d6000602084013e6104c8565b606091505b506001600160a01b0384166104dc57600080555b6104e5816107f9565b925050506104f2565b5050505b95945050505050565b7f000000000000000000000000000000000000000000000000000000000000000081565b7f000000000000000000000000000000000000000000000000000000000000000081565b60005b6000610551846107c4565b9050600080600061056187610793565b9250925092506105758383838960006105b5565b955083156102cb57610586876107cc565b965050505050610546565b7f000000000000000000000000000000000000000000000000000000000000000081565b6040516309cd91db60e31b81526000906001600160a01b03808716908816109073__$708233afd6c8f5dd23d33a215fb048c749$__90634e6c8ed890610625907f0000000000000000000000000000000000000000000000000000000000000000908b908b908b90600401610db1565b60206040518083038186803b15801561063d57600080fd5b505af4158015610651573d6000803e3d6000fd5b505050506040513d601f19601f820116820180604052508101906106759190610c20565b6001600160a01b031663128acb08308361068e886107e3565b6001600160a01b038816156106a357876106c9565b856106c25773fffd8963efd1fc6a506488495d951d5263988d256106c9565b6401000276a45b8c8b8d6040516020016106de93929190610d62565b6040516020818303038152906040526040518663ffffffff1660e01b815260040161070d959493929190610ddf565b6040805180830381600087803b15801561072657600080fd5b505af1925050508015610756575060408051601f3d908101601f1916820190925261075391810190610c43565b60015b6104ee573d808015610784576040519150601f19603f3d011682016040523d82523d6000602084013e610789565b606091505b506104e5816107f9565b600080806107a18482610876565b92506107ae846014610926565b90506107bb846017610876565b91509193909250565b516042111590565b80516060906102e0908390601790601619016109cd565b6000600160ff1b82106107f557600080fd5b5090565b600081516020146108625760448251101561082f5760405162461bcd60e51b815260040161082690610e38565b60405180910390fd5b600482019150818060200190518101906108499190610cb4565b60405162461bcd60e51b81526004016108269190610e25565b818060200190518101906102e09190610d1e565b6000818260140110156108c5576040805162461bcd60e51b8152602060048201526012602482015271746f416464726573735f6f766572666c6f7760701b604482015290519081900360640190fd5b8160140183511015610916576040805162461bcd60e51b8152602060048201526015602482015274746f416464726573735f6f75744f66426f756e647360581b604482015290519081900360640190fd5b500160200151600160601b900490565b600081826003011015610974576040805162461bcd60e51b8152602060048201526011602482015270746f55696e7432345f6f766572666c6f7760781b604482015290519081900360640190fd5b81600301835110156109c4576040805162461bcd60e51b8152602060048201526014602482015273746f55696e7432345f6f75744f66426f756e647360601b604482015290519081900360640190fd5b50016003015190565b60608182601f011015610a18576040805162461bcd60e51b815260206004820152600e60248201526d736c6963655f6f766572666c6f7760901b604482015290519081900360640190fd5b828284011015610a60576040805162461bcd60e51b815260206004820152600e60248201526d736c6963655f6f766572666c6f7760901b604482015290519081900360640190fd5b81830184511015610aac576040805162461bcd60e51b8152602060048201526011602482015270736c6963655f6f75744f66426f756e647360781b604482015290519081900360640190fd5b606082158015610acb5760405191506000825260208201604052610b15565b6040519150601f8416801560200281840101858101878315602002848b0101015b81831015610b04578051835260209283019201610aec565b5050858452601f01601f1916604052505b50949350505050565b600082601f830112610b2e578081fd5b8135610b41610b3c82610e8f565b610e6b565b818152846020838601011115610b55578283fd5b816020850160208301379081016020019190915292915050565b600080600080600060a08688031215610b86578081fd5b8535610b9181610ee1565b94506020860135610ba181610ee1565b9350604086013562ffffff81168114610bb8578182fd5b9250606086013591506080860135610bcf81610ee1565b809150509295509295909350565b60008060408385031215610bef578182fd5b823567ffffffffffffffff811115610c05578283fd5b610c1185828601610b1e565b95602094909401359450505050565b600060208284031215610c31578081fd5b8151610c3c81610ee1565b9392505050565b60008060408385031215610c55578182fd5b505080516020909101519092909150565b600080600060608486031215610c7a578283fd5b8335925060208401359150604084013567ffffffffffffffff811115610c9e578182fd5b610caa86828701610b1e565b9150509250925092565b600060208284031215610cc5578081fd5b815167ffffffffffffffff811115610cdb578182fd5b8201601f81018413610ceb578182fd5b8051610cf9610b3c82610e8f565b818152856020838501011115610d0d578384fd5b6104f2826020830160208601610eb1565b600060208284031215610d2f578081fd5b5051919050565b60008151808452610d4e816020860160208601610eb1565b601f01601f19169290920160200192915050565b606093841b6bffffffffffffffffffffffff19908116825260e89390931b6001600160e81b0319166014820152921b166017820152602b0190565b6001600160a01b0391909116815260200190565b6001600160a01b03948516815292841660208401529216604082015262ffffff909116606082015260800190565b6001600160a01b0386811682528515156020830152604082018590528316606082015260a060808201819052600090610e1a90830184610d36565b979650505050505050565b600060208252610c3c6020830184610d36565b60208082526010908201526f2ab732bc3832b1ba32b21032b93937b960811b604082015260600190565b90815260200190565b60405181810167ffffffffffffffff81118282101715610e8757fe5b604052919050565b600067ffffffffffffffff821115610ea357fe5b50601f01601f191660200190565b60005b83811015610ecc578181015183820152602001610eb4565b83811115610edb576000848401525b50505050565b6001600160a01b0381168114610ef657600080fd5b5056fea26469706673582212202094f9f8c7644badd4bbbe2c99db1f03bd4a1ccc636e0f0b3d3b2f4bab9aa5cf64736f6c63430007060033","linkReferences":{"src/router/contracts/libraries/SmartRouterHelper.sol":{"SmartRouterHelper":[{"start":591,"length":20},{"start":1035,"length":20},{"start":1743,"length":20}]}}},"methodIdentifiers":{"WETH9()":"4aa4a4fc","deployer()":"d5f39488","factory()":"c45a0155","pancakeV3SwapCallback(int256,int256,bytes)":"23a69e75","quoteExactInput(bytes,uint256)":"cdca1753","quoteExactInputSingle(address,address,uint24,uint256,uint160)":"f7729d43","quoteExactOutput(bytes,uint256)":"2f80bb1d","quoteExactOutputSingle(address,address,uint24,uint256,uint160)":"30d07f21"},"id":106}